{"abi":[{"type":"constructor","inputs":[],"stateMutability":"nonpayable"},{"type":"function","name":"UPGRADE_INTERFACE_VERSION","inputs":[],"outputs":[{"name":"","type":"string","internalType":"string"}],"stateMutability":"view"},{"type":"function","name":"activeListingsCount","inputs":[],"outputs":[{"name":"","type":"uint256","internalType":"uint256"}],"stateMutability":"view"},{"type":"function","name":"buyNFT","inputs":[{"name":"listingId","type":"bytes32","internalType":"bytes32"}],"outputs":[],"stateMutability":"payable"},{"type":"function","name":"delistNFT","inputs":[{"name":"listingId","type":"bytes32","internalType":"bytes32"}],"outputs":[],"stateMutability":"nonpayable"},{"type":"function","name":"emergencyWithdraw","inputs":[{"name":"amount","type":"uint256","internalType":"uint256"}],"outputs":[],"stateMutability":"nonpayable"},{"type":"function","name":"feePercentage","inputs":[],"outputs":[{"name":"","type":"uint256","internalType":"uint256"}],"stateMutability":"view"},{"type":"function","name":"feeRecipient","inputs":[],"outputs":[{"name":"","type":"address","internalType":"address"}],"stateMutability":"view"},{"type":"function","name":"getListing","inputs":[{"name":"listingId","type":"bytes32","internalType":"bytes32"}],"outputs":[{"name":"","type":"tuple","internalType":"struct NFTMarketUpgradeable.Listing","components":[{"name":"seller","type":"address","internalType":"address"},{"name":"nftContract","type":"address","internalType":"address"},{"name":"tokenId","type":"uint256","internalType":"uint256"},{"name":"price","type":"uint256","internalType":"uint256"},{"name":"active","type":"bool","internalType":"bool"},{"name":"timestamp","type":"uint256","internalType":"uint256"}]}],"stateMutability":"view"},{"type":"function","name":"getMarketStats","inputs":[],"outputs":[{"name":"_activeListingsCount","type":"uint256","internalType":"uint256"},{"name":"_contractBalance","type":"uint256","internalType":"uint256"},{"name":"_feePercentage","type":"uint256","internalType":"uint256"}],"stateMutability":"view"},{"type":"function","name":"getUserListings","inputs":[{"name":"user","type":"address","internalType":"address"}],"outputs":[{"name":"","type":"bytes32[]","internalType":"bytes32[]"}],"stateMutability":"view"},{"type":"function","name":"initialize","inputs":[{"name":"_feePercentage","type":"uint256","internalType":"uint256"},{"name":"_feeRecipient","type":"address","internalType":"address"},{"name":"_minPrice","type":"uint256","internalType":"uint256"},{"name":"_maxPrice","type":"uint256","internalType":"uint256"}],"outputs":[],"stateMutability":"nonpayable"},{"type":"function","name":"listNFT","inputs":[{"name":"nftContract","type":"address","internalType":"address"},{"name":"tokenId","type":"uint256","internalType":"uint256"},{"name":"price","type":"uint256","internalType":"uint256"}],"outputs":[],"stateMutability":"nonpayable"},{"type":"function","name":"listings","inputs":[{"name":"","type":"bytes32","internalType":"bytes32"}],"outputs":[{"name":"seller","type":"address","internalType":"address"},{"name":"nftContract","type":"address","internalType":"address"},{"name":"tokenId","type":"uint256","internalType":"uint256"},{"name":"price","type":"uint256","internalType":"uint256"},{"name":"active","type":"bool","internalType":"bool"},{"name":"timestamp","type":"uint256","internalType":"uint256"}],"stateMutability":"view"},{"type":"function","name":"maxPrice","inputs":[],"outputs":[{"name":"","type":"uint256","internalType":"uint256"}],"stateMutability":"view"},{"type":"function","name":"minPrice","inputs":[],"outputs":[{"name":"","type":"uint256","internalType":"uint256"}],"stateMutability":"view"},{"type":"function","name":"onERC721Received","inputs":[{"name":"operator","type":"address","internalType":"address"},{"name":"from","type":"address","internalType":"address"},{"name":"tokenId","type":"uint256","internalType":"uint256"},{"name":"data","type":"bytes","internalType":"bytes"}],"outputs":[{"name":"","type":"bytes4","internalType":"bytes4"}],"stateMutability":"pure"},{"type":"function","name":"owner","inputs":[],"outputs":[{"name":"","type":"address","internalType":"address"}],"stateMutability":"view"},{"type":"function","name":"pause","inputs":[],"outputs":[],"stateMutability":"nonpayable"},{"type":"function","name":"paused","inputs":[],"outputs":[{"name":"","type":"bool","internalType":"bool"}],"stateMutability":"view"},{"type":"function","name":"proxiableUUID","inputs":[],"outputs":[{"name":"","type":"bytes32","internalType":"bytes32"}],"stateMutability":"view"},{"type":"function","name":"renounceOwnership","inputs":[],"outputs":[],"stateMutability":"nonpayable"},{"type":"function","name":"supportsInterface","inputs":[{"name":"interfaceId","type":"bytes4","internalType":"bytes4"}],"outputs":[{"name":"","type":"bool","internalType":"bool"}],"stateMutability":"pure"},{"type":"function","name":"transferOwnership","inputs":[{"name":"newOwner","type":"address","internalType":"address"}],"outputs":[],"stateMutability":"nonpayable"},{"type":"function","name":"unpause","inputs":[],"outputs":[],"stateMutability":"nonpayable"},{"type":"function","name":"updateMarketParams","inputs":[{"name":"_feePercentage","type":"uint256","internalType":"uint256"},{"name":"_feeRecipient","type":"address","internalType":"address"},{"name":"_minPrice","type":"uint256","internalType":"uint256"},{"name":"_maxPrice","type":"uint256","internalType":"uint256"}],"outputs":[],"stateMutability":"nonpayable"},{"type":"function","name":"upgradeToAndCall","inputs":[{"name":"newImplementation","type":"address","internalType":"address"},{"name":"data","type":"bytes","internalType":"bytes"}],"outputs":[],"stateMutability":"payable"},{"type":"function","name":"userListings","inputs":[{"name":"","type":"address","internalType":"address"},{"name":"","type":"uint256","internalType":"uint256"}],"outputs":[{"name":"","type":"bytes32","internalType":"bytes32"}],"stateMutability":"view"},{"type":"function","name":"version","inputs":[],"outputs":[{"name":"","type":"string","internalType":"string"}],"stateMutability":"pure"},{"type":"event","name":"Initialized","inputs":[{"name":"version","type":"uint64","indexed":false,"internalType":"uint64"}],"anonymous":false},{"type":"event","name":"MarketParamsUpdated","inputs":[{"name":"feePercentage","type":"uint256","indexed":false,"internalType":"uint256"},{"name":"feeRecipient","type":"address","indexed":false,"internalType":"address"},{"name":"minPrice","type":"uint256","indexed":false,"internalType":"uint256"},{"name":"maxPrice","type":"uint256","indexed":false,"internalType":"uint256"}],"anonymous":false},{"type":"event","name":"NFTDelisted","inputs":[{"name":"listingId","type":"bytes32","indexed":true,"internalType":"bytes32"},{"name":"seller","type":"address","indexed":true,"internalType":"address"},{"name":"nftContract","type":"address","indexed":true,"internalType":"address"},{"name":"tokenId","type":"uint256","indexed":false,"internalType":"uint256"},{"name":"timestamp","type":"uint256","indexed":false,"internalType":"uint256"}],"anonymous":false},{"type":"event","name":"NFTListed","inputs":[{"name":"listingId","type":"bytes32","indexed":true,"internalType":"bytes32"},{"name":"seller","type":"address","indexed":true,"internalType":"address"},{"name":"nftContract","type":"address","indexed":true,"internalType":"address"},{"name":"tokenId","type":"uint256","indexed":false,"internalType":"uint256"},{"name":"price","type":"uint256","indexed":false,"internalType":"uint256"},{"name":"timestamp","type":"uint256","indexed":false,"internalType":"uint256"}],"anonymous":false},{"type":"event","name":"NFTPurchased","inputs":[{"name":"listingId","type":"bytes32","indexed":true,"internalType":"bytes32"},{"name":"buyer","type":"address","indexed":true,"internalType":"address"},{"name":"seller","type":"address","indexed":true,"internalType":"address"},{"name":"nftContract","type":"address","indexed":false,"internalType":"address"},{"name":"tokenId","type":"uint256","indexed":false,"internalType":"uint256"},{"name":"price","type":"uint256","indexed":false,"internalType":"uint256"},{"name":"fee","type":"uint256","indexed":false,"internalType":"uint256"},{"name":"timestamp","type":"uint256","indexed":false,"internalType":"uint256"}],"anonymous":false},{"type":"event","name":"OwnershipTransferred","inputs":[{"name":"previousOwner","type":"address","indexed":true,"internalType":"address"},{"name":"newOwner","type":"address","indexed":true,"internalType":"address"}],"anonymous":false},{"type":"event","name":"Paused","inputs":[{"name":"account","type":"address","indexed":false,"internalType":"address"}],"anonymous":false},{"type":"event","name":"Unpaused","inputs":[{"name":"account","type":"address","indexed":false,"internalType":"address"}],"anonymous":false},{"type":"event","name":"Upgraded","inputs":[{"name":"implementation","type":"address","indexed":true,"internalType":"address"}],"anonymous":false},{"type":"error","name":"AddressEmptyCode","inputs":[{"name":"target","type":"address","internalType":"address"}]},{"type":"error","name":"ERC1967InvalidImplementation","inputs":[{"name":"implementation","type":"address","internalType":"address"}]},{"type":"error","name":"ERC1967NonPayable","inputs":[]},{"type":"error","name":"EnforcedPause","inputs":[]},{"type":"error","name":"ExpectedPause","inputs":[]},{"type":"error","name":"FailedCall","inputs":[]},{"type":"error","name":"InsufficientPayment","inputs":[{"name":"required","type":"uint256","internalType":"uint256"},{"name":"provided","type":"uint256","internalType":"uint256"}]},{"type":"error","name":"InvalidInitialization","inputs":[]},{"type":"error","name":"ListingNotActive","inputs":[{"name":"listingId","type":"bytes32","internalType":"bytes32"}]},{"type":"error","name":"ListingNotFound","inputs":[{"name":"listingId","type":"bytes32","internalType":"bytes32"}]},{"type":"error","name":"NFTTransferFailed","inputs":[]},{"type":"error","name":"NotInitializing","inputs":[]},{"type":"error","name":"NotLister","inputs":[{"name":"listingId","type":"bytes32","internalType":"bytes32"}]},{"type":"error","name":"NotNFTOwner","inputs":[{"name":"nftContract","type":"address","internalType":"address"},{"name":"tokenId","type":"uint256","internalType":"uint256"}]},{"type":"error","name":"OwnableInvalidOwner","inputs":[{"name":"owner","type":"address","internalType":"address"}]},{"type":"error","name":"OwnableUnauthorizedAccount","inputs":[{"name":"account","type":"address","internalType":"address"}]},{"type":"error","name":"PriceOutOfRange","inputs":[{"name":"price","type":"uint256","internalType":"uint256"},{"name":"minPrice","type":"uint256","internalType":"uint256"},{"name":"maxPrice","type":"uint256","internalType":"uint256"}]},{"type":"error","name":"ReentrancyGuardReentrantCall","inputs":[]},{"type":"error","name":"UUPSUnauthorizedCallContext","inputs":[]},{"type":"error","name":"UUPSUnsupportedProxiableUUID","inputs":[{"name":"slot","type":"bytes32","internalType":"bytes32"}]}],"bytecode":{"object":"0x60a06040523073ffffffffffffffffffffffffffffffffffffffff1660809073ffffffffffffffffffffffffffffffffffffffff168152503480156041575f80fd5b50608051613ce36100685f395f8181611fe70152818161203c01526121f60152613ce35ff3fe6080604052600436106101b6575f3560e01c8063715018a6116100eb578063ae4a452511610089578063e45be8eb11610063578063e45be8eb146105a7578063eb18a9d8146105d1578063f2fde38b1461060d578063ff4cd5b914610635576101b6565b8063ae4a452514610514578063c18b8db41461053c578063e38d6b5c1461057d576101b6565b80638da5cb5b116100c55780638da5cb5b1461046e578063a001ecdd14610498578063ad05f1b4146104c2578063ad3cb1cc146104ea576101b6565b8063715018a6146104065780638456cb591461041c57806386cfa7d314610432576101b6565b806346904840116101585780635312ea8e116101325780635312ea8e1461036257806354fd4d501461038a5780635c975abb146103b45780636da7cd74146103de576101b6565b806346904840146102f25780634f1ef2861461031c57806352d1902d14610338576101b6565b80631539819611610194578063153981961461025c5780631711846914610284578063175c0d16146102a05780633f4ba83a146102dc576101b6565b806301ffc9a7146101ba578063045fb3e9146101f6578063150b7a0214610220575b5f80fd5b3480156101c5575f80fd5b506101e060048036038101906101db91906129d5565b610661565b6040516101ed9190612a1a565b60405180910390f35b348015610201575f80fd5b5061020a610692565b6040516102179190612a4b565b60405180910390f35b34801561022b575f80fd5b5061024660048036038101906102419190612b49565b610698565b6040516102539190612bdc565b60405180910390f35b348015610267575f80fd5b50610282600480360381019061027d9190612bf5565b6106ac565b005b61029e60048036038101906102999190612c8c565b610882565b005b3480156102ab575f80fd5b506102c660048036038101906102c19190612c8c565b610d6f565b6040516102d39190612d5d565b60405180910390f35b3480156102e7575f80fd5b506102f0610e7b565b005b3480156102fd575f80fd5b50610306610e8d565b6040516103139190612d85565b60405180910390f35b61033660048036038101906103319190612ed6565b610eb2565b005b348015610343575f80fd5b5061034c610ed1565b6040516103599190612f3f565b60405180910390f35b34801561036d575f80fd5b5061038860048036038101906103839190612f58565b610f02565b005b348015610395575f80fd5b5061039e611000565b6040516103ab9190612fe3565b60405180910390f35b3480156103bf575f80fd5b506103c861103d565b6040516103d59190612a1a565b60405180910390f35b3480156103e9575f80fd5b5061040460048036038101906103ff9190612c8c565b61105f565b005b348015610411575f80fd5b5061041a6112ca565b005b348015610427575f80fd5b506104306112dd565b005b34801561043d575f80fd5b5061045860048036038101906104539190613003565b6112ef565b6040516104659190612f3f565b60405180910390f35b348015610479575f80fd5b5061048261131a565b60405161048f9190612d85565b60405180910390f35b3480156104a3575f80fd5b506104ac61134f565b6040516104b99190612a4b565b60405180910390f35b3480156104cd575f80fd5b506104e860048036038101906104e39190613041565b611354565b005b3480156104f5575f80fd5b506104fe61192b565b60405161050b9190612fe3565b60405180910390f35b34801561051f575f80fd5b5061053a60048036038101906105359190612bf5565b611964565b005b348015610547575f80fd5b50610562600480360381019061055d9190612c8c565b611c8b565b60405161057496959493929190613091565b60405180910390f35b348015610588575f80fd5b50610591611d0d565b60405161059e9190612a4b565b60405180910390f35b3480156105b2575f80fd5b506105bb611d13565b6040516105c89190612a4b565b60405180910390f35b3480156105dc575f80fd5b506105f760048036038101906105f291906130f0565b611d19565b60405161060491906131d2565b60405180910390f35b348015610618575f80fd5b50610633600480360381019061062e91906130f0565b611dac565b005b348015610640575f80fd5b50610649611e30565b604051610658939291906131f2565b60405180910390f35b5f6301ffc9a760e01b827bffffffffffffffffffffffffffffffffffffffffffffffffffffffff1916149050919050565b60065481565b5f63150b7a0260e01b905095945050505050565b6106b4611e44565b6103e88411156106f9576040517f08c379a00000000000000000000000000000000000000000000000000000000081526004016106f090613271565b60405180910390fd5b5f73ffffffffffffffffffffffffffffffffffffffff168373ffffffffffffffffffffffffffffffffffffffff1603610767576040517f08c379a000000000000000000000000000000000000000000000000000000000815260040161075e906132d9565b60405180910390fd5b5f82116107a9576040517f08c379a00000000000000000000000000000000000000000000000000000000081526004016107a090613341565b60405180910390fd5b8181116107eb576040517f08c379a00000000000000000000000000000000000000000000000000000000081526004016107e2906133cf565b60405180910390fd5b835f819055508260015f6101000a81548173ffffffffffffffffffffffffffffffffffffffff021916908373ffffffffffffffffffffffffffffffffffffffff16021790555081600281905550806003819055507fc2a20124247acd3485b7368880895c4525db967b8d954480d71808ad52f8cb908484848460405161087494939291906133ed565b60405180910390a150505050565b61088a611ecb565b610892611f0c565b5f60045f8381526020019081526020015f209050806004015f9054906101000a900460ff166108f857816040517ff6a0b3c00000000000000000000000000000000000000000000000000000000081526004016108ef9190612f3f565b60405180910390fd5b8060030154341015610947578060030154346040517fb99e2ab700000000000000000000000000000000000000000000000000000000815260040161093e929190613430565b60405180910390fd5b5f6127105f54836003015461095c9190613484565b61096691906134f2565b90505f8183600301546109799190613522565b90505f836004015f6101000a81548160ff02191690831515021790555060065f8154809291906109a890613555565b91905055505f836001015f9054906101000a900473ffffffffffffffffffffffffffffffffffffffff1690508073ffffffffffffffffffffffffffffffffffffffff166342842e0e303387600201546040518463ffffffff1660e01b8152600401610a159392919061357c565b5f604051808303815f87803b158015610a2c575f80fd5b505af1158015610a3e573d5f803e3d5ffd5b505050505f831115610b15575f60015f9054906101000a900473ffffffffffffffffffffffffffffffffffffffff1673ffffffffffffffffffffffffffffffffffffffff1684604051610a90906135de565b5f6040518083038185875af1925050503d805f8114610aca576040519150601f19603f3d011682016040523d82523d5f602084013e610acf565b606091505b5050905080610b13576040517f08c379a0000000000000000000000000000000000000000000000000000000008152600401610b0a9061363c565b60405180910390fd5b505b5f845f015f9054906101000a900473ffffffffffffffffffffffffffffffffffffffff1673ffffffffffffffffffffffffffffffffffffffff1683604051610b5c906135de565b5f6040518083038185875af1925050503d805f8114610b96576040519150601f19603f3d011682016040523d82523d5f602084013e610b9b565b606091505b5050905080610bdf576040517f08c379a0000000000000000000000000000000000000000000000000000000008152600401610bd6906136a4565b60405180910390fd5b8460030154341115610ca4575f3373ffffffffffffffffffffffffffffffffffffffff16866003015434610c139190613522565b604051610c1f906135de565b5f6040518083038185875af1925050503d805f8114610c59576040519150601f19603f3d011682016040523d82523d5f602084013e610c5e565b606091505b5050905080610ca2576040517f08c379a0000000000000000000000000000000000000000000000000000000008152600401610c999061370c565b60405180910390fd5b505b845f015f9054906101000a900473ffffffffffffffffffffffffffffffffffffffff1673ffffffffffffffffffffffffffffffffffffffff163373ffffffffffffffffffffffffffffffffffffffff16877f0371852999d5a264e85635bbf983fdf9ec399a9d79c11943b155db715978e5af886001015f9054906101000a900473ffffffffffffffffffffffffffffffffffffffff1689600201548a600301548a42604051610d5795949392919061372a565b60405180910390a45050505050610d6c611f60565b50565b610d77612911565b60045f8381526020019081526020015f206040518060c00160405290815f82015f9054906101000a900473ffffffffffffffffffffffffffffffffffffffff1673ffffffffffffffffffffffffffffffffffffffff1673ffffffffffffffffffffffffffffffffffffffff168152602001600182015f9054906101000a900473ffffffffffffffffffffffffffffffffffffffff1673ffffffffffffffffffffffffffffffffffffffff1673ffffffffffffffffffffffffffffffffffffffff1681526020016002820154815260200160038201548152602001600482015f9054906101000a900460ff161515151581526020016005820154815250509050919050565b610e83611e44565b610e8b611f77565b565b60015f9054906101000a900473ffffffffffffffffffffffffffffffffffffffff1681565b610eba611fe5565b610ec3826120cb565b610ecd82826120d6565b5050565b5f610eda6121f4565b7f360894a13ba1a3210667c828492db98dca3e2076cc3735a920a3ca505d382bbc5f1b905090565b610f0a611e44565b80471015610f4d576040517f08c379a0000000000000000000000000000000000000000000000000000000008152600401610f44906137c5565b60405180910390fd5b5f610f5661131a565b73ffffffffffffffffffffffffffffffffffffffff1682604051610f79906135de565b5f6040518083038185875af1925050503d805f8114610fb3576040519150601f19603f3d011682016040523d82523d5f602084013e610fb8565b606091505b5050905080610ffc576040517f08c379a0000000000000000000000000000000000000000000000000000000008152600401610ff39061382d565b60405180910390fd5b5050565b60606040518060400160405280600581526020017f312e302e30000000000000000000000000000000000000000000000000000000815250905090565b5f8061104761227b565b9050805f015f9054906101000a900460ff1691505090565b611067611ecb565b61106f611f0c565b5f60045f8381526020019081526020015f209050806004015f9054906101000a900460ff166110d557816040517ff6a0b3c00000000000000000000000000000000000000000000000000000000081526004016110cc9190612f3f565b60405180910390fd5b3373ffffffffffffffffffffffffffffffffffffffff16815f015f9054906101000a900473ffffffffffffffffffffffffffffffffffffffff1673ffffffffffffffffffffffffffffffffffffffff161461116757816040517f8f05f87000000000000000000000000000000000000000000000000000000000815260040161115e9190612f3f565b60405180910390fd5b5f816004015f6101000a81548160ff02191690831515021790555060065f81548092919061119490613555565b91905055505f816001015f9054906101000a900473ffffffffffffffffffffffffffffffffffffffff1690508073ffffffffffffffffffffffffffffffffffffffff166342842e0e303385600201546040518463ffffffff1660e01b81526004016112019392919061357c565b5f604051808303815f87803b158015611218575f80fd5b505af115801561122a573d5f803e3d5ffd5b50505050816001015f9054906101000a900473ffffffffffffffffffffffffffffffffffffffff1673ffffffffffffffffffffffffffffffffffffffff163373ffffffffffffffffffffffffffffffffffffffff16847fa50fcfa9a2af1282fde9daef074e37fbd0e14c4455ec9def3f97ede61f0ead178560020154426040516112b5929190613430565b60405180910390a450506112c7611f60565b50565b6112d2611e44565b6112db5f6122a2565b565b6112e5611e44565b6112ed612373565b565b6005602052815f5260405f208181548110611308575f80fd5b905f5260205f20015f91509150505481565b5f806113246123e2565b9050805f015f9054906101000a900473ffffffffffffffffffffffffffffffffffffffff1691505090565b5f5481565b61135c611ecb565b611364611f0c565b600254811015801561137857506003548111155b6113b7576040517f08c379a00000000000000000000000000000000000000000000000000000000081526004016113ae90613895565b60405180910390fd5b5f8390503373ffffffffffffffffffffffffffffffffffffffff168173ffffffffffffffffffffffffffffffffffffffff16636352211e856040518263ffffffff1660e01b815260040161140b9190612a4b565b602060405180830381865afa158015611426573d5f803e3d5ffd5b505050506040513d601f19601f8201168201806040525081019061144a91906138c7565b73ffffffffffffffffffffffffffffffffffffffff16146114a0576040517f08c379a00000000000000000000000000000000000000000000000000000000081526004016114979061393c565b60405180910390fd5b8073ffffffffffffffffffffffffffffffffffffffff1663e985e9c533306040518363ffffffff1660e01b81526004016114db92919061395a565b602060405180830381865afa1580156114f6573d5f803e3d5ffd5b505050506040513d601f19601f8201168201806040525081019061151a91906139ab565b806115c757503073ffffffffffffffffffffffffffffffffffffffff168173ffffffffffffffffffffffffffffffffffffffff1663081812fc856040518263ffffffff1660e01b81526004016115709190612a4b565b602060405180830381865afa15801561158b573d5f803e3d5ffd5b505050506040513d601f19601f820116820180604052508101906115af91906138c7565b73ffffffffffffffffffffffffffffffffffffffff16145b611606576040517f08c379a00000000000000000000000000000000000000000000000000000000081526004016115fd90613a20565b60405180910390fd5b5f3385858542604051602001611620959493929190613aa3565b60405160208183030381529060405280519060200120905060045f8281526020019081526020015f206004015f9054906101000a900460ff1615611699576040517f08c379a000000000000000000000000000000000000000000000000000000000815260040161169090613b4b565b60405180910390fd5b6040518060c001604052803373ffffffffffffffffffffffffffffffffffffffff1681526020018673ffffffffffffffffffffffffffffffffffffffff1681526020018581526020018481526020016001151581526020014281525060045f8381526020019081526020015f205f820151815f015f6101000a81548173ffffffffffffffffffffffffffffffffffffffff021916908373ffffffffffffffffffffffffffffffffffffffff1602179055506020820151816001015f6101000a81548173ffffffffffffffffffffffffffffffffffffffff021916908373ffffffffffffffffffffffffffffffffffffffff16021790555060408201518160020155606082015181600301556080820151816004015f6101000a81548160ff02191690831515021790555060a0820151816005015590505060055f3373ffffffffffffffffffffffffffffffffffffffff1673ffffffffffffffffffffffffffffffffffffffff1681526020019081526020015f2081908060018154018082558091505060019003905f5260205f20015f909190919091505560065f81548092919061184390613b69565b91905055508173ffffffffffffffffffffffffffffffffffffffff166342842e0e3330876040518463ffffffff1660e01b81526004016118859392919061357c565b5f604051808303815f87803b15801561189c575f80fd5b505af11580156118ae573d5f803e3d5ffd5b505050508473ffffffffffffffffffffffffffffffffffffffff163373ffffffffffffffffffffffffffffffffffffffff16827fc545701dee8754ebd2a3d3c1432200743463c141b5ed90d8c509bcd3bff47627878742604051611914939291906131f2565b60405180910390a45050611926611f60565b505050565b6040518060400160405280600581526020017f352e302e3000000000000000000000000000000000000000000000000000000081525081565b5f61196d612409565b90505f815f0160089054906101000a900460ff161590505f825f015f9054906101000a900467ffffffffffffffff1690505f808267ffffffffffffffff161480156119b55750825b90505f60018367ffffffffffffffff161480156119e857505f3073ffffffffffffffffffffffffffffffffffffffff163b145b9050811580156119f6575080155b15611a2d576040517ff92ee8a900000000000000000000000000000000000000000000000000000000815260040160405180910390fd5b6001855f015f6101000a81548167ffffffffffffffff021916908367ffffffffffffffff1602179055508315611a7a576001855f0160086101000a81548160ff0219169083151502179055505b611a833361241c565b611a8b612430565b611a9361243a565b611a9b61244c565b6103e8891115611ae0576040517f08c379a0000000000000000000000000000000000000000000000000000000008152600401611ad790613271565b60405180910390fd5b5f73ffffffffffffffffffffffffffffffffffffffff168873ffffffffffffffffffffffffffffffffffffffff1603611b4e576040517f08c379a0000000000000000000000000000000000000000000000000000000008152600401611b45906132d9565b60405180910390fd5b5f8711611b90576040517f08c379a0000000000000000000000000000000000000000000000000000000008152600401611b8790613341565b60405180910390fd5b868611611bd2576040517f08c379a0000000000000000000000000000000000000000000000000000000008152600401611bc9906133cf565b60405180910390fd5b885f819055508760015f6101000a81548173ffffffffffffffffffffffffffffffffffffffff021916908373ffffffffffffffffffffffffffffffffffffffff16021790555086600281905550856003819055508315611c80575f855f0160086101000a81548160ff0219169083151502179055507fc7f505b2f371ae2175ee4913f4499e1f2633a7b5936321eed1cdaeb6115181d26001604051611c779190613c05565b60405180910390a15b505050505050505050565b6004602052805f5260405f205f91509050805f015f9054906101000a900473ffffffffffffffffffffffffffffffffffffffff1690806001015f9054906101000a900473ffffffffffffffffffffffffffffffffffffffff1690806002015490806003015490806004015f9054906101000a900460ff16908060050154905086565b60035481565b60025481565b606060055f8373ffffffffffffffffffffffffffffffffffffffff1673ffffffffffffffffffffffffffffffffffffffff1681526020019081526020015f20805480602002602001604051908101604052809291908181526020018280548015611da057602002820191905f5260205f20905b815481526020019060010190808311611d8c575b50505050509050919050565b611db4611e44565b5f73ffffffffffffffffffffffffffffffffffffffff168173ffffffffffffffffffffffffffffffffffffffff1603611e24575f6040517f1e4fbdf7000000000000000000000000000000000000000000000000000000008152600401611e1b9190612d85565b60405180910390fd5b611e2d816122a2565b50565b5f805f600654475f54925092509250909192565b611e4c612456565b73ffffffffffffffffffffffffffffffffffffffff16611e6a61131a565b73ffffffffffffffffffffffffffffffffffffffff1614611ec957611e8d612456565b6040517f118cdaa7000000000000000000000000000000000000000000000000000000008152600401611ec09190612d85565b60405180910390fd5b565b611ed361103d565b15611f0a576040517fd93c066500000000000000000000000000000000000000000000000000000000815260040160405180910390fd5b565b5f611f1561245d565b90506002815f015403611f54576040517f3ee5aeb500000000000000000000000000000000000000000000000000000000815260040160405180910390fd5b6002815f018190555050565b5f611f6961245d565b90506001815f018190555050565b611f7f612484565b5f611f8861227b565b90505f815f015f6101000a81548160ff0219169083151502179055507f5db9ee0a495bf2e6ff9c91a7834c1ba4fdd244a5e8aa4e537bd38aeae4b073aa611fcd612456565b604051611fda9190612d85565b60405180910390a150565b7f000000000000000000000000000000000000000000000000000000000000000073ffffffffffffffffffffffffffffffffffffffff163073ffffffffffffffffffffffffffffffffffffffff16148061209257507f000000000000000000000000000000000000000000000000000000000000000073ffffffffffffffffffffffffffffffffffffffff166120796124c4565b73ffffffffffffffffffffffffffffffffffffffff1614155b156120c9576040517fe07c8dba00000000000000000000000000000000000000000000000000000000815260040160405180910390fd5b565b6120d3611e44565b50565b8173ffffffffffffffffffffffffffffffffffffffff166352d1902d6040518163ffffffff1660e01b8152600401602060405180830381865afa92505050801561213e57506040513d601f19601f8201168201806040525081019061213b9190613c32565b60015b61217f57816040517f4c9c8ce30000000000000000000000000000000000000000000000000000000081526004016121769190612d85565b60405180910390fd5b7f360894a13ba1a3210667c828492db98dca3e2076cc3735a920a3ca505d382bbc5f1b81146121e557806040517faa1d49a40000000000000000000000000000000000000000000000000000000081526004016121dc9190612f3f565b60405180910390fd5b6121ef8383612517565b505050565b7f000000000000000000000000000000000000000000000000000000000000000073ffffffffffffffffffffffffffffffffffffffff163073ffffffffffffffffffffffffffffffffffffffff1614612279576040517fe07c8dba00000000000000000000000000000000000000000000000000000000815260040160405180910390fd5b565b5f7fcd5ed15c6e187e77e9aee88184c21f4f2182ab5827cb3b7e07fbedcd63f03300905090565b5f6122ab6123e2565b90505f815f015f9054906101000a900473ffffffffffffffffffffffffffffffffffffffff16905082825f015f6101000a81548173ffffffffffffffffffffffffffffffffffffffff021916908373ffffffffffffffffffffffffffffffffffffffff1602179055508273ffffffffffffffffffffffffffffffffffffffff168173ffffffffffffffffffffffffffffffffffffffff167f8be0079c531659141344cd1fd0a4f28419497f9722a3daafe3b4186f6b6457e060405160405180910390a3505050565b61237b611ecb565b5f61238461227b565b90506001815f015f6101000a81548160ff0219169083151502179055507f62e78cea01bee320cd4e420270b5ea74000d11b0c9f74754ebdbfc544b05a2586123ca612456565b6040516123d79190612d85565b60405180910390a150565b5f7f9016d09d72d40fdae2fd8ceac6b6234c7706214fd39c1cd1e609a0528c199300905090565b5f80612413612589565b90508091505090565b6124246125b2565b61242d816125f2565b50565b6124386125b2565b565b6124426125b2565b61244a612676565b565b6124546125b2565b565b5f33905090565b5f7f9b779b17422d0df92223018b32b4d1fa46e071723d6817e2486d003becc55f00905090565b61248c61103d565b6124c2576040517f8dfc202b00000000000000000000000000000000000000000000000000000000815260040160405180910390fd5b565b5f6124f07f360894a13ba1a3210667c828492db98dca3e2076cc3735a920a3ca505d382bbc5f1b612695565b5f015f9054906101000a900473ffffffffffffffffffffffffffffffffffffffff16905090565b6125208261269e565b8173ffffffffffffffffffffffffffffffffffffffff167fbc7cd75a20ee27fd9adebab32041f755214dbc6bffa90cc0225b39da2e5c2d3b60405160405180910390a25f8151111561257c576125768282612767565b50612585565b6125846127e7565b5b5050565b5f7ff0c57e16840df040f15088dc2f81fe391c3923bec73e23a9662efc9c229c6a005f1b905090565b6125ba612823565b6125f0576040517fd7e6bcf800000000000000000000000000000000000000000000000000000000815260040160405180910390fd5b565b6125fa6125b2565b5f73ffffffffffffffffffffffffffffffffffffffff168173ffffffffffffffffffffffffffffffffffffffff160361266a575f6040517f1e4fbdf70000000000000000000000000000000000000000000000000000000081526004016126619190612d85565b60405180910390fd5b612673816122a2565b50565b61267e6125b2565b5f61268761245d565b90506001815f018190555050565b5f819050919050565b5f8173ffffffffffffffffffffffffffffffffffffffff163b036126f957806040517f4c9c8ce30000000000000000000000000000000000000000000000000000000081526004016126f09190612d85565b60405180910390fd5b806127257f360894a13ba1a3210667c828492db98dca3e2076cc3735a920a3ca505d382bbc5f1b612695565b5f015f6101000a81548173ffffffffffffffffffffffffffffffffffffffff021916908373ffffffffffffffffffffffffffffffffffffffff16021790555050565b60605f808473ffffffffffffffffffffffffffffffffffffffff16846040516127909190613c97565b5f60405180830381855af49150503d805f81146127c8576040519150601f19603f3d011682016040523d82523d5f602084013e6127cd565b606091505b50915091506127dd858383612841565b9250505092915050565b5f341115612821576040517fb398979f00000000000000000000000000000000000000000000000000000000815260040160405180910390fd5b565b5f61282c612409565b5f0160089054906101000a900460ff16905090565b60608261285657612851826128ce565b6128c6565b5f825114801561287c57505f8473ffffffffffffffffffffffffffffffffffffffff163b145b156128be57836040517f9996b3150000000000000000000000000000000000000000000000000000000081526004016128b59190612d85565b60405180910390fd5b8190506128c7565b5b9392505050565b5f815111156128df57805160208201fd5b6040517fd6bda27500000000000000000000000000000000000000000000000000000000815260040160405180910390fd5b6040518060c001604052805f73ffffffffffffffffffffffffffffffffffffffff1681526020015f73ffffffffffffffffffffffffffffffffffffffff1681526020015f81526020015f81526020015f151581526020015f81525090565b5f604051905090565b5f80fd5b5f80fd5b5f7fffffffff0000000000000000000000000000000000000000000000000000000082169050919050565b6129b481612980565b81146129be575f80fd5b50565b5f813590506129cf816129ab565b92915050565b5f602082840312156129ea576129e9612978565b5b5f6129f7848285016129c1565b91505092915050565b5f8115159050919050565b612a1481612a00565b82525050565b5f602082019050612a2d5f830184612a0b565b92915050565b5f819050919050565b612a4581612a33565b82525050565b5f602082019050612a5e5f830184612a3c565b92915050565b5f73ffffffffffffffffffffffffffffffffffffffff82169050919050565b5f612a8d82612a64565b9050919050565b612a9d81612a83565b8114612aa7575f80fd5b50565b5f81359050612ab881612a94565b92915050565b612ac781612a33565b8114612ad1575f80fd5b50565b5f81359050612ae281612abe565b92915050565b5f80fd5b5f80fd5b5f80fd5b5f8083601f840112612b0957612b08612ae8565b5b8235905067ffffffffffffffff811115612b2657612b25612aec565b5b602083019150836001820283011115612b4257612b41612af0565b5b9250929050565b5f805f805f60808688031215612b6257612b61612978565b5b5f612b6f88828901612aaa565b9550506020612b8088828901612aaa565b9450506040612b9188828901612ad4565b935050606086013567ffffffffffffffff811115612bb257612bb161297c565b5b612bbe88828901612af4565b92509250509295509295909350565b612bd681612980565b82525050565b5f602082019050612bef5f830184612bcd565b92915050565b5f805f8060808587031215612c0d57612c0c612978565b5b5f612c1a87828801612ad4565b9450506020612c2b87828801612aaa565b9350506040612c3c87828801612ad4565b9250506060612c4d87828801612ad4565b91505092959194509250565b5f819050919050565b612c6b81612c59565b8114612c75575f80fd5b50565b5f81359050612c8681612c62565b92915050565b5f60208284031215612ca157612ca0612978565b5b5f612cae84828501612c78565b91505092915050565b612cc081612a83565b82525050565b612ccf81612a33565b82525050565b612cde81612a00565b82525050565b60c082015f820151612cf85f850182612cb7565b506020820151612d0b6020850182612cb7565b506040820151612d1e6040850182612cc6565b506060820151612d316060850182612cc6565b506080820151612d446080850182612cd5565b5060a0820151612d5760a0850182612cc6565b50505050565b5f60c082019050612d705f830184612ce4565b92915050565b612d7f81612a83565b82525050565b5f602082019050612d985f830184612d76565b92915050565b5f80fd5b5f601f19601f8301169050919050565b7f4e487b71000000000000000000000000000000000000000000000000000000005f52604160045260245ffd5b612de882612da2565b810181811067ffffffffffffffff82111715612e0757612e06612db2565b5b80604052505050565b5f612e1961296f565b9050612e258282612ddf565b919050565b5f67ffffffffffffffff821115612e4457612e43612db2565b5b612e4d82612da2565b9050602081019050919050565b828183375f83830152505050565b5f612e7a612e7584612e2a565b612e10565b905082815260208101848484011115612e9657612e95612d9e565b5b612ea1848285612e5a565b509392505050565b5f82601f830112612ebd57612ebc612ae8565b5b8135612ecd848260208601612e68565b91505092915050565b5f8060408385031215612eec57612eeb612978565b5b5f612ef985828601612aaa565b925050602083013567ffffffffffffffff811115612f1a57612f1961297c565b5b612f2685828601612ea9565b9150509250929050565b612f3981612c59565b82525050565b5f602082019050612f525f830184612f30565b92915050565b5f60208284031215612f6d57612f6c612978565b5b5f612f7a84828501612ad4565b91505092915050565b5f81519050919050565b5f82825260208201905092915050565b8281835e5f83830152505050565b5f612fb582612f83565b612fbf8185612f8d565b9350612fcf818560208601612f9d565b612fd881612da2565b840191505092915050565b5f6020820190508181035f830152612ffb8184612fab565b905092915050565b5f806040838503121561301957613018612978565b5b5f61302685828601612aaa565b925050602061303785828601612ad4565b9150509250929050565b5f805f6060848603121561305857613057612978565b5b5f61306586828701612aaa565b935050602061307686828701612ad4565b925050604061308786828701612ad4565b9150509250925092565b5f60c0820190506130a45f830189612d76565b6130b16020830188612d76565b6130be6040830187612a3c565b6130cb6060830186612a3c565b6130d86080830185612a0b565b6130e560a0830184612a3c565b979650505050505050565b5f6020828403121561310557613104612978565b5b5f61311284828501612aaa565b91505092915050565b5f81519050919050565b5f82825260208201905092915050565b5f819050602082019050919050565b61314d81612c59565b82525050565b5f61315e8383613144565b60208301905092915050565b5f602082019050919050565b5f6131808261311b565b61318a8185613125565b935061319583613135565b805f5b838110156131c55781516131ac8882613153565b97506131b78361316a565b925050600181019050613198565b5085935050505092915050565b5f6020820190508181035f8301526131ea8184613176565b905092915050565b5f6060820190506132055f830186612a3c565b6132126020830185612a3c565b61321f6040830184612a3c565b949350505050565b7f4665652070657263656e7461676520746f6f20686967680000000000000000005f82015250565b5f61325b601783612f8d565b915061326682613227565b602082019050919050565b5f6020820190508181035f8301526132888161324f565b9050919050565b7f496e76616c69642066656520726563697069656e7400000000000000000000005f82015250565b5f6132c3601583612f8d565b91506132ce8261328f565b602082019050919050565b5f6020820190508181035f8301526132f0816132b7565b9050919050565b7f4d696e207072696365206d7573742062652067726561746572207468616e20305f82015250565b5f61332b602083612f8d565b9150613336826132f7565b602082019050919050565b5f6020820190508181035f8301526133588161331f565b9050919050565b7f4d6178207072696365206d7573742062652067726561746572207468616e206d5f8201527f696e207072696365000000000000000000000000000000000000000000000000602082015250565b5f6133b9602883612f8d565b91506133c48261335f565b604082019050919050565b5f6020820190508181035f8301526133e6816133ad565b9050919050565b5f6080820190506134005f830187612a3c565b61340d6020830186612d76565b61341a6040830185612a3c565b6134276060830184612a3c565b95945050505050565b5f6040820190506134435f830185612a3c565b6134506020830184612a3c565b9392505050565b7f4e487b71000000000000000000000000000000000000000000000000000000005f52601160045260245ffd5b5f61348e82612a33565b915061349983612a33565b92508282026134a781612a33565b915082820484148315176134be576134bd613457565b5b5092915050565b7f4e487b71000000000000000000000000000000000000000000000000000000005f52601260045260245ffd5b5f6134fc82612a33565b915061350783612a33565b925082613517576135166134c5565b5b828204905092915050565b5f61352c82612a33565b915061353783612a33565b925082820390508181111561354f5761354e613457565b5b92915050565b5f61355f82612a33565b91505f820361357157613570613457565b5b600182039050919050565b5f60608201905061358f5f830186612d76565b61359c6020830185612d76565b6135a96040830184612a3c565b949350505050565b5f81905092915050565b50565b5f6135c95f836135b1565b91506135d4826135bb565b5f82019050919050565b5f6135e8826135be565b9150819050919050565b7f466565207472616e73666572206661696c6564000000000000000000000000005f82015250565b5f613626601383612f8d565b9150613631826135f2565b602082019050919050565b5f6020820190508181035f8301526136538161361a565b9050919050565b7f53656c6c6572207061796d656e74206661696c656400000000000000000000005f82015250565b5f61368e601583612f8d565b91506136998261365a565b602082019050919050565b5f6020820190508181035f8301526136bb81613682565b9050919050565b7f526566756e64206661696c6564000000000000000000000000000000000000005f82015250565b5f6136f6600d83612f8d565b9150613701826136c2565b602082019050919050565b5f6020820190508181035f830152613723816136ea565b9050919050565b5f60a08201905061373d5f830188612d76565b61374a6020830187612a3c565b6137576040830186612a3c565b6137646060830185612a3c565b6137716080830184612a3c565b9695505050505050565b7f496e73756666696369656e742062616c616e63650000000000000000000000005f82015250565b5f6137af601483612f8d565b91506137ba8261377b565b602082019050919050565b5f6020820190508181035f8301526137dc816137a3565b9050919050565b7f5769746864726177616c206661696c65640000000000000000000000000000005f82015250565b5f613817601183612f8d565b9150613822826137e3565b602082019050919050565b5f6020820190508181035f8301526138448161380b565b9050919050565b7f5072696365206f7574206f662072616e676500000000000000000000000000005f82015250565b5f61387f601283612f8d565b915061388a8261384b565b602082019050919050565b5f6020820190508181035f8301526138ac81613873565b9050919050565b5f815190506138c181612a94565b92915050565b5f602082840312156138dc576138db612978565b5b5f6138e9848285016138b3565b91505092915050565b7f4e6f74204e4654206f776e6572000000000000000000000000000000000000005f82015250565b5f613926600d83612f8d565b9150613931826138f2565b602082019050919050565b5f6020820190508181035f8301526139538161391a565b9050919050565b5f60408201905061396d5f830185612d76565b61397a6020830184612d76565b9392505050565b61398a81612a00565b8114613994575f80fd5b50565b5f815190506139a581613981565b92915050565b5f602082840312156139c0576139bf612978565b5b5f6139cd84828501613997565b91505092915050565b7f4d61726b6574206e6f7420617070726f766564000000000000000000000000005f82015250565b5f613a0a601383612f8d565b9150613a15826139d6565b602082019050919050565b5f6020820190508181035f830152613a37816139fe565b9050919050565b5f8160601b9050919050565b5f613a5482613a3e565b9050919050565b5f613a6582613a4a565b9050919050565b613a7d613a7882612a83565b613a5b565b82525050565b5f819050919050565b613a9d613a9882612a33565b613a83565b82525050565b5f613aae8288613a6c565b601482019150613abe8287613a6c565b601482019150613ace8286613a8c565b602082019150613ade8285613a8c565b602082019150613aee8284613a8c565b6020820191508190509695505050505050565b7f4c697374696e6720616c726561647920657869737473000000000000000000005f82015250565b5f613b35601683612f8d565b9150613b4082613b01565b602082019050919050565b5f6020820190508181035f830152613b6281613b29565b9050919050565b5f613b7382612a33565b91507fffffffffffffffffffffffffffffffffffffffffffffffffffffffffffffffff8203613ba557613ba4613457565b5b600182019050919050565b5f819050919050565b5f67ffffffffffffffff82169050919050565b5f819050919050565b5f613bef613bea613be584613bb0565b613bcc565b613bb9565b9050919050565b613bff81613bd5565b82525050565b5f602082019050613c185f830184613bf6565b92915050565b5f81519050613c2c81612c62565b92915050565b5f60208284031215613c4757613c46612978565b5b5f613c5484828501613c1e565b91505092915050565b5f81519050919050565b5f613c7182613c5d565b613c7b81856135b1565b9350613c8b818560208601612f9d565b80840191505092915050565b5f613ca28284613c67565b91508190509291505056fea264697066735822122056d37c5e2c8ca25b4e0c91a22b3284591ecef3aade29698a1edee6f77bfa169164736f6c63430008190033","linkReferences":{}},"methodIdentifiers":{"UPGRADE_INTERFACE_VERSION()":"ad3cb1cc","activeListingsCount()":"045fb3e9","buyNFT(bytes32)":"17118469","delistNFT(bytes32)":"6da7cd74","emergencyWithdraw(uint256)":"5312ea8e","feePercentage()":"a001ecdd","feeRecipient()":"46904840","getListing(bytes32)":"175c0d16","getMarketStats()":"ff4cd5b9","getUserListings(address)":"eb18a9d8","initialize(uint256,address,uint256,uint256)":"ae4a4525","listNFT(address,uint256,uint256)":"ad05f1b4","listings(bytes32)":"c18b8db4","maxPrice()":"e38d6b5c","minPrice()":"e45be8eb","onERC721Received(address,address,uint256,bytes)":"150b7a02","owner()":"8da5cb5b","pause()":"8456cb59","paused()":"5c975abb","proxiableUUID()":"52d1902d","renounceOwnership()":"715018a6","supportsInterface(bytes4)":"01ffc9a7","transferOwnership(address)":"f2fde38b","unpause()":"3f4ba83a","updateMarketParams(uint256,address,uint256,uint256)":"15398196","upgradeToAndCall(address,bytes)":"4f1ef286","userListings(address,uint256)":"86cfa7d3","version()":"54fd4d50"},"id":48}