{"abi":[{"type":"constructor","inputs":[],"stateMutability":"nonpayable"},{"type":"function","name":"UPGRADE_INTERFACE_VERSION","inputs":[],"outputs":[{"name":"","type":"string","internalType":"string"}],"stateMutability":"view"},{"type":"function","name":"approve","inputs":[{"name":"to","type":"address","internalType":"address"},{"name":"tokenId","type":"uint256","internalType":"uint256"}],"outputs":[],"stateMutability":"nonpayable"},{"type":"function","name":"balanceOf","inputs":[{"name":"owner","type":"address","internalType":"address"}],"outputs":[{"name":"","type":"uint256","internalType":"uint256"}],"stateMutability":"view"},{"type":"function","name":"getApproved","inputs":[{"name":"tokenId","type":"uint256","internalType":"uint256"}],"outputs":[{"name":"","type":"address","internalType":"address"}],"stateMutability":"view"},{"type":"function","name":"getCurrentTokenId","inputs":[],"outputs":[{"name":"","type":"uint256","internalType":"uint256"}],"stateMutability":"view"},{"type":"function","name":"initialize","inputs":[{"name":"name","type":"string","internalType":"string"},{"name":"symbol","type":"string","internalType":"string"},{"name":"baseTokenURI","type":"string","internalType":"string"},{"name":"_maxSupply","type":"uint256","internalType":"uint256"}],"outputs":[],"stateMutability":"nonpayable"},{"type":"function","name":"isApprovedForAll","inputs":[{"name":"owner","type":"address","internalType":"address"},{"name":"operator","type":"address","internalType":"address"}],"outputs":[{"name":"","type":"bool","internalType":"bool"}],"stateMutability":"view"},{"type":"function","name":"maxSupply","inputs":[],"outputs":[{"name":"","type":"uint256","internalType":"uint256"}],"stateMutability":"view"},{"type":"function","name":"mint","inputs":[{"name":"to","type":"address","internalType":"address"}],"outputs":[{"name":"","type":"uint256","internalType":"uint256"}],"stateMutability":"nonpayable"},{"type":"function","name":"mintBatch","inputs":[{"name":"to","type":"address","internalType":"address"},{"name":"amount","type":"uint256","internalType":"uint256"}],"outputs":[],"stateMutability":"nonpayable"},{"type":"function","name":"name","inputs":[],"outputs":[{"name":"","type":"string","internalType":"string"}],"stateMutability":"view"},{"type":"function","name":"owner","inputs":[],"outputs":[{"name":"","type":"address","internalType":"address"}],"stateMutability":"view"},{"type":"function","name":"ownerOf","inputs":[{"name":"tokenId","type":"uint256","internalType":"uint256"}],"outputs":[{"name":"","type":"address","internalType":"address"}],"stateMutability":"view"},{"type":"function","name":"proxiableUUID","inputs":[],"outputs":[{"name":"","type":"bytes32","internalType":"bytes32"}],"stateMutability":"view"},{"type":"function","name":"renounceOwnership","inputs":[],"outputs":[],"stateMutability":"nonpayable"},{"type":"function","name":"safeTransferFrom","inputs":[{"name":"from","type":"address","internalType":"address"},{"name":"to","type":"address","internalType":"address"},{"name":"tokenId","type":"uint256","internalType":"uint256"}],"outputs":[],"stateMutability":"nonpayable"},{"type":"function","name":"safeTransferFrom","inputs":[{"name":"from","type":"address","internalType":"address"},{"name":"to","type":"address","internalType":"address"},{"name":"tokenId","type":"uint256","internalType":"uint256"},{"name":"data","type":"bytes","internalType":"bytes"}],"outputs":[],"stateMutability":"nonpayable"},{"type":"function","name":"setApprovalForAll","inputs":[{"name":"operator","type":"address","internalType":"address"},{"name":"approved","type":"bool","internalType":"bool"}],"outputs":[],"stateMutability":"nonpayable"},{"type":"function","name":"setBaseURI","inputs":[{"name":"newBaseURI","type":"string","internalType":"string"}],"outputs":[],"stateMutability":"nonpayable"},{"type":"function","name":"setMaxSupply","inputs":[{"name":"newMaxSupply","type":"uint256","internalType":"uint256"}],"outputs":[],"stateMutability":"nonpayable"},{"type":"function","name":"supportsInterface","inputs":[{"name":"interfaceId","type":"bytes4","internalType":"bytes4"}],"outputs":[{"name":"","type":"bool","internalType":"bool"}],"stateMutability":"view"},{"type":"function","name":"symbol","inputs":[],"outputs":[{"name":"","type":"string","internalType":"string"}],"stateMutability":"view"},{"type":"function","name":"tokenURI","inputs":[{"name":"tokenId","type":"uint256","internalType":"uint256"}],"outputs":[{"name":"","type":"string","internalType":"string"}],"stateMutability":"view"},{"type":"function","name":"totalSupply","inputs":[],"outputs":[{"name":"","type":"uint256","internalType":"uint256"}],"stateMutability":"view"},{"type":"function","name":"transferFrom","inputs":[{"name":"from","type":"address","internalType":"address"},{"name":"to","type":"address","internalType":"address"},{"name":"tokenId","type":"uint256","internalType":"uint256"}],"outputs":[],"stateMutability":"nonpayable"},{"type":"function","name":"transferOwnership","inputs":[{"name":"newOwner","type":"address","internalType":"address"}],"outputs":[],"stateMutability":"nonpayable"},{"type":"function","name":"upgradeToAndCall","inputs":[{"name":"newImplementation","type":"address","internalType":"address"},{"name":"data","type":"bytes","internalType":"bytes"}],"outputs":[],"stateMutability":"payable"},{"type":"function","name":"version","inputs":[],"outputs":[{"name":"","type":"string","internalType":"string"}],"stateMutability":"pure"},{"type":"event","name":"Approval","inputs":[{"name":"owner","type":"address","indexed":true,"internalType":"address"},{"name":"approved","type":"address","indexed":true,"internalType":"address"},{"name":"tokenId","type":"uint256","indexed":true,"internalType":"uint256"}],"anonymous":false},{"type":"event","name":"ApprovalForAll","inputs":[{"name":"owner","type":"address","indexed":true,"internalType":"address"},{"name":"operator","type":"address","indexed":true,"internalType":"address"},{"name":"approved","type":"bool","indexed":false,"internalType":"bool"}],"anonymous":false},{"type":"event","name":"BaseURIUpdated","inputs":[{"name":"newBaseURI","type":"string","indexed":false,"internalType":"string"}],"anonymous":false},{"type":"event","name":"Initialized","inputs":[{"name":"version","type":"uint64","indexed":false,"internalType":"uint64"}],"anonymous":false},{"type":"event","name":"MaxSupplyUpdated","inputs":[{"name":"newMaxSupply","type":"uint256","indexed":false,"internalType":"uint256"}],"anonymous":false},{"type":"event","name":"NFTMinted","inputs":[{"name":"to","type":"address","indexed":true,"internalType":"address"},{"name":"tokenId","type":"uint256","indexed":true,"internalType":"uint256"}],"anonymous":false},{"type":"event","name":"OwnershipTransferred","inputs":[{"name":"previousOwner","type":"address","indexed":true,"internalType":"address"},{"name":"newOwner","type":"address","indexed":true,"internalType":"address"}],"anonymous":false},{"type":"event","name":"Transfer","inputs":[{"name":"from","type":"address","indexed":true,"internalType":"address"},{"name":"to","type":"address","indexed":true,"internalType":"address"},{"name":"tokenId","type":"uint256","indexed":true,"internalType":"uint256"}],"anonymous":false},{"type":"event","name":"Upgraded","inputs":[{"name":"implementation","type":"address","indexed":true,"internalType":"address"}],"anonymous":false},{"type":"error","name":"AddressEmptyCode","inputs":[{"name":"target","type":"address","internalType":"address"}]},{"type":"error","name":"ERC1967InvalidImplementation","inputs":[{"name":"implementation","type":"address","internalType":"address"}]},{"type":"error","name":"ERC1967NonPayable","inputs":[]},{"type":"error","name":"ERC721IncorrectOwner","inputs":[{"name":"sender","type":"address","internalType":"address"},{"name":"tokenId","type":"uint256","internalType":"uint256"},{"name":"owner","type":"address","internalType":"address"}]},{"type":"error","name":"ERC721InsufficientApproval","inputs":[{"name":"operator","type":"address","internalType":"address"},{"name":"tokenId","type":"uint256","internalType":"uint256"}]},{"type":"error","name":"ERC721InvalidApprover","inputs":[{"name":"approver","type":"address","internalType":"address"}]},{"type":"error","name":"ERC721InvalidOperator","inputs":[{"name":"operator","type":"address","internalType":"address"}]},{"type":"error","name":"ERC721InvalidOwner","inputs":[{"name":"owner","type":"address","internalType":"address"}]},{"type":"error","name":"ERC721InvalidReceiver","inputs":[{"name":"receiver","type":"address","internalType":"address"}]},{"type":"error","name":"ERC721InvalidSender","inputs":[{"name":"sender","type":"address","internalType":"address"}]},{"type":"error","name":"ERC721NonexistentToken","inputs":[{"name":"tokenId","type":"uint256","internalType":"uint256"}]},{"type":"error","name":"FailedCall","inputs":[]},{"type":"error","name":"InvalidInitialization","inputs":[]},{"type":"error","name":"NotInitializing","inputs":[]},{"type":"error","name":"OwnableInvalidOwner","inputs":[{"name":"owner","type":"address","internalType":"address"}]},{"type":"error","name":"OwnableUnauthorizedAccount","inputs":[{"name":"account","type":"address","internalType":"address"}]},{"type":"error","name":"UUPSUnauthorizedCallContext","inputs":[]},{"type":"error","name":"UUPSUnsupportedProxiableUUID","inputs":[{"name":"slot","type":"bytes32","internalType":"bytes32"}]}],"bytecode":{"object":"0x60a06040523073ffffffffffffffffffffffffffffffffffffffff1660809073ffffffffffffffffffffffffffffffffffffffff168152503480156041575f80fd5b50608051613a286100685f395f8181611756015281816117ab01526119650152613a285ff3fe6080604052600436106101b6575f3560e01c80636352211e116100eb578063a22cb46511610089578063c87b56dd11610063578063c87b56dd146105d0578063d5abeb011461060c578063e985e9c514610636578063f2fde38b14610672576101b6565b8063a22cb46514610556578063ad3cb1cc1461057e578063b88d4fde146105a8576101b6565b806370a08231116100c557806370a08231146104b0578063715018a6146104ec5780638da5cb5b1461050257806395d89b411461052c576101b6565b80636352211e146104105780636a6278421461044c5780636f8b44b014610488576101b6565b8063248b71fc1161015857806352d1902d1161013257806352d1902d1461036a57806354fd4d501461039457806355f804b3146103be57806356189236146103e6576101b6565b8063248b71fc146102fe57806342842e0e146103265780634f1ef2861461034e576101b6565b8063095ea7b311610194578063095ea7b31461025c57806318160ddd146102845780631c5d2b49146102ae57806323b872dd146102d6576101b6565b806301ffc9a7146101ba57806306fdde03146101f6578063081812fc14610220575b5f80fd5b3480156101c5575f80fd5b506101e060048036038101906101db9190612a95565b61069a565b6040516101ed9190612ada565b60405180910390f35b348015610201575f80fd5b5061020a6106ab565b6040516102179190612b63565b60405180910390f35b34801561022b575f80fd5b5061024660048036038101906102419190612bb6565b610748565b6040516102539190612c20565b60405180910390f35b348015610267575f80fd5b50610282600480360381019061027d9190612c63565b610763565b005b34801561028f575f80fd5b50610298610779565b6040516102a59190612cb0565b60405180910390f35b3480156102b9575f80fd5b506102d460048036038101906102cf9190612df5565b61078d565b005b3480156102e1575f80fd5b506102fc60048036038101906102f79190612ead565b610941565b005b348015610309575f80fd5b50610324600480360381019061031f9190612c63565b610a40565b005b348015610331575f80fd5b5061034c60048036038101906103479190612ead565b610bdb565b005b61036860048036038101906103639190612f9b565b610bfa565b005b348015610375575f80fd5b5061037e610c19565b60405161038b919061300d565b60405180910390f35b34801561039f575f80fd5b506103a8610c4a565b6040516103b59190612b63565b60405180910390f35b3480156103c9575f80fd5b506103e460048036038101906103df9190613026565b610c87565b005b3480156103f1575f80fd5b506103fa610cd9565b6040516104079190612cb0565b60405180910390f35b34801561041b575f80fd5b5061043660048036038101906104319190612bb6565b610ce1565b6040516104439190612c20565b60405180910390f35b348015610457575f80fd5b50610472600480360381019061046d919061306d565b610cf2565b60405161047f9190612cb0565b60405180910390f35b348015610493575f80fd5b506104ae60048036038101906104a99190612bb6565b610e21565b005b3480156104bb575f80fd5b506104d660048036038101906104d1919061306d565b610eb4565b6040516104e39190612cb0565b60405180910390f35b3480156104f7575f80fd5b50610500610f78565b005b34801561050d575f80fd5b50610516610f8b565b6040516105239190612c20565b60405180910390f35b348015610537575f80fd5b50610540610fc0565b60405161054d9190612b63565b60405180910390f35b348015610561575f80fd5b5061057c600480360381019061057791906130c2565b61105e565b005b348015610589575f80fd5b50610592611074565b60405161059f9190612b63565b60405180910390f35b3480156105b3575f80fd5b506105ce60048036038101906105c99190613100565b6110ad565b005b3480156105db575f80fd5b506105f660048036038101906105f19190612bb6565b6110d2565b6040516106039190612b63565b60405180910390f35b348015610617575f80fd5b50610620611138565b60405161062d9190612cb0565b60405180910390f35b348015610641575f80fd5b5061065c60048036038101906106579190613180565b61113e565b6040516106699190612ada565b60405180910390f35b34801561067d575f80fd5b506106986004803603810190610693919061306d565b6111da565b005b5f6106a48261125e565b9050919050565b60605f6106b661133f565b9050805f0180546106c6906131eb565b80601f01602080910402602001604051908101604052809291908181526020018280546106f2906131eb565b801561073d5780601f106107145761010080835404028352916020019161073d565b820191905f5260205f20905b81548152906001019060200180831161072057829003601f168201915b505050505091505090565b5f61075282611366565b5061075c826113ec565b9050919050565b6107758282610770611433565b61143a565b5050565b5f60015f546107889190613248565b905090565b5f61079661144c565b90505f815f0160089054906101000a900460ff161590505f825f015f9054906101000a900467ffffffffffffffff1690505f808267ffffffffffffffff161480156107de5750825b90505f60018367ffffffffffffffff1614801561081157505f3073ffffffffffffffffffffffffffffffffffffffff163b145b90508115801561081f575080155b15610856576040517ff92ee8a900000000000000000000000000000000000000000000000000000000815260040160405180910390fd5b6001855f015f6101000a81548167ffffffffffffffff021916908367ffffffffffffffff16021790555083156108a3576001855f0160086101000a81548160ff0219169083151502179055505b6108ad898961145f565b6108b633611475565b6108be611489565b86600190816108cd9190613418565b508560028190555060015f819055508315610936575f855f0160086101000a81548160ff0219169083151502179055507fc7f505b2f371ae2175ee4913f4499e1f2633a7b5936321eed1cdaeb6115181d2600160405161092d9190613533565b60405180910390a15b505050505050505050565b5f73ffffffffffffffffffffffffffffffffffffffff168273ffffffffffffffffffffffffffffffffffffffff16036109b1575f6040517f64a0ae920000000000000000000000000000000000000000000000000000000081526004016109a89190612c20565b60405180910390fd5b5f6109c483836109bf611433565b611493565b90508373ffffffffffffffffffffffffffffffffffffffff168173ffffffffffffffffffffffffffffffffffffffff1614610a3a578382826040517f64283d7b000000000000000000000000000000000000000000000000000000008152600401610a319392919061354c565b60405180910390fd5b50505050565b610a486116b0565b5f73ffffffffffffffffffffffffffffffffffffffff168273ffffffffffffffffffffffffffffffffffffffff1603610ab6576040517f08c379a0000000000000000000000000000000000000000000000000000000008152600401610aad906135cb565b60405180910390fd5b5f8111610af8576040517f08c379a0000000000000000000000000000000000000000000000000000000008152600401610aef90613659565b60405180910390fd5b6002546001825f54610b0a9190613677565b610b149190613248565b1115610b55576040517f08c379a0000000000000000000000000000000000000000000000000000000008152600401610b4c906136f4565b60405180910390fd5b5f5b81811015610bd6575f805490505f80815480929190610b7590613712565b9190505550610b848482611737565b808473ffffffffffffffffffffffffffffffffffffffff167f4cc0a9c4a99ddc700de1af2c9f916a7cbfdb71f14801ccff94061ad1ef8a804060405160405180910390a3508080600101915050610b57565b505050565b610bf583838360405180602001604052805f8152506110ad565b505050565b610c02611754565b610c0b8261183a565b610c158282611845565b5050565b5f610c22611963565b7f360894a13ba1a3210667c828492db98dca3e2076cc3735a920a3ca505d382bbc5f1b905090565b60606040518060400160405280600581526020017f312e302e30000000000000000000000000000000000000000000000000000000815250905090565b610c8f6116b0565b8060019081610c9e9190613418565b507f6741b2fc379fad678116fe3d4d4b9a1a184ab53ba36b86ad0fa66340b1ab41ad81604051610cce9190612b63565b60405180910390a150565b5f8054905090565b5f610ceb82611366565b9050919050565b5f610cfb6116b0565b5f73ffffffffffffffffffffffffffffffffffffffff168273ffffffffffffffffffffffffffffffffffffffff1603610d69576040517f08c379a0000000000000000000000000000000000000000000000000000000008152600401610d60906135cb565b60405180910390fd5b6002545f541115610daf576040517f08c379a0000000000000000000000000000000000000000000000000000000008152600401610da6906136f4565b60405180910390fd5b5f805490505f80815480929190610dc590613712565b9190505550610dd48382611737565b808373ffffffffffffffffffffffffffffffffffffffff167f4cc0a9c4a99ddc700de1af2c9f916a7cbfdb71f14801ccff94061ad1ef8a804060405160405180910390a380915050919050565b610e296116b0565b610e31610779565b811015610e73576040517f08c379a0000000000000000000000000000000000000000000000000000000008152600401610e6a906137a3565b60405180910390fd5b806002819055507f7810bd47de260c3e9ee10061cf438099dd12256c79485f12f94dbccc981e806c81604051610ea99190612cb0565b60405180910390a150565b5f80610ebe61133f565b90505f73ffffffffffffffffffffffffffffffffffffffff168373ffffffffffffffffffffffffffffffffffffffff1603610f30575f6040517f89c62b64000000000000000000000000000000000000000000000000000000008152600401610f279190612c20565b60405180910390fd5b806003015f8473ffffffffffffffffffffffffffffffffffffffff1673ffffffffffffffffffffffffffffffffffffffff1681526020019081526020015f2054915050919050565b610f806116b0565b610f895f6119ea565b565b5f80610f95611abb565b9050805f015f9054906101000a900473ffffffffffffffffffffffffffffffffffffffff1691505090565b60605f610fcb61133f565b9050806001018054610fdc906131eb565b80601f0160208091040260200160405190810160405280929190818152602001828054611008906131eb565b80156110535780601f1061102a57610100808354040283529160200191611053565b820191905f5260205f20905b81548152906001019060200180831161103657829003601f168201915b505050505091505090565b611070611069611433565b8383611ae2565b5050565b6040518060400160405280600581526020017f352e302e3000000000000000000000000000000000000000000000000000000081525081565b6110b8848484610941565b6110cc6110c3611433565b85858585611c59565b50505050565b60606110dd82611366565b505f6110e7611e05565b90505f8151116111055760405180602001604052805f815250611130565b8061110f84611e95565b6040516020016111209291906137fb565b6040516020818303038152906040525b915050919050565b60025481565b5f8061114861133f565b9050806005015f8573ffffffffffffffffffffffffffffffffffffffff1673ffffffffffffffffffffffffffffffffffffffff1681526020019081526020015f205f8473ffffffffffffffffffffffffffffffffffffffff1673ffffffffffffffffffffffffffffffffffffffff1681526020019081526020015f205f9054906101000a900460ff1691505092915050565b6111e26116b0565b5f73ffffffffffffffffffffffffffffffffffffffff168173ffffffffffffffffffffffffffffffffffffffff1603611252575f6040517f1e4fbdf70000000000000000000000000000000000000000000000000000000081526004016112499190612c20565b60405180910390fd5b61125b816119ea565b50565b5f7f80ac58cd000000000000000000000000000000000000000000000000000000007bffffffffffffffffffffffffffffffffffffffffffffffffffffffff1916827bffffffffffffffffffffffffffffffffffffffffffffffffffffffff1916148061132857507f5b5e139f000000000000000000000000000000000000000000000000000000007bffffffffffffffffffffffffffffffffffffffffffffffffffffffff1916827bffffffffffffffffffffffffffffffffffffffffffffffffffffffff1916145b80611338575061133782611f5f565b5b9050919050565b5f7f80bb2b638cc20bc4d0a60d66940f3ab4a00c1d7b313497ca82fb0b4ab0079300905090565b5f8061137183611fc8565b90505f73ffffffffffffffffffffffffffffffffffffffff168173ffffffffffffffffffffffffffffffffffffffff16036113e357826040517f7e2732890000000000000000000000000000000000000000000000000000000081526004016113da9190612cb0565b60405180910390fd5b80915050919050565b5f806113f661133f565b9050806004015f8481526020019081526020015f205f9054906101000a900473ffffffffffffffffffffffffffffffffffffffff16915050919050565b5f33905090565b611447838383600161200f565b505050565b5f806114566121dc565b90508091505090565b611467612205565b6114718282612245565b5050565b61147d612205565b61148681612280565b50565b611491612205565b565b5f8061149d61133f565b90505f6114a985611fc8565b90505f73ffffffffffffffffffffffffffffffffffffffff168473ffffffffffffffffffffffffffffffffffffffff16146114ea576114e9818587612304565b5b5f73ffffffffffffffffffffffffffffffffffffffff168173ffffffffffffffffffffffffffffffffffffffff1614611577576115295f865f8061200f565b6001826003015f8373ffffffffffffffffffffffffffffffffffffffff1673ffffffffffffffffffffffffffffffffffffffff1681526020019081526020015f205f82825403925050819055505b5f73ffffffffffffffffffffffffffffffffffffffff168673ffffffffffffffffffffffffffffffffffffffff16146115f8576001826003015f8873ffffffffffffffffffffffffffffffffffffffff1673ffffffffffffffffffffffffffffffffffffffff1681526020019081526020015f205f82825401925050819055505b85826002015f8781526020019081526020015f205f6101000a81548173ffffffffffffffffffffffffffffffffffffffff021916908373ffffffffffffffffffffffffffffffffffffffff160217905550848673ffffffffffffffffffffffffffffffffffffffff168273ffffffffffffffffffffffffffffffffffffffff167fddf252ad1be2c89b69c2b068fc378daa952ba7f163c4a11628f55a4df523b3ef60405160405180910390a480925050509392505050565b6116b8611433565b73ffffffffffffffffffffffffffffffffffffffff166116d6610f8b565b73ffffffffffffffffffffffffffffffffffffffff1614611735576116f9611433565b6040517f118cdaa700000000000000000000000000000000000000000000000000000000815260040161172c9190612c20565b60405180910390fd5b565b611750828260405180602001604052805f8152506123c7565b5050565b7f000000000000000000000000000000000000000000000000000000000000000073ffffffffffffffffffffffffffffffffffffffff163073ffffffffffffffffffffffffffffffffffffffff16148061180157507f000000000000000000000000000000000000000000000000000000000000000073ffffffffffffffffffffffffffffffffffffffff166117e86123ea565b73ffffffffffffffffffffffffffffffffffffffff1614155b15611838576040517fe07c8dba00000000000000000000000000000000000000000000000000000000815260040160405180910390fd5b565b6118426116b0565b50565b8173ffffffffffffffffffffffffffffffffffffffff166352d1902d6040518163ffffffff1660e01b8152600401602060405180830381865afa9250505080156118ad57506040513d601f19601f820116820180604052508101906118aa9190613848565b60015b6118ee57816040517f4c9c8ce30000000000000000000000000000000000000000000000000000000081526004016118e59190612c20565b60405180910390fd5b7f360894a13ba1a3210667c828492db98dca3e2076cc3735a920a3ca505d382bbc5f1b811461195457806040517faa1d49a400000000000000000000000000000000000000000000000000000000815260040161194b919061300d565b60405180910390fd5b61195e838361243d565b505050565b7f000000000000000000000000000000000000000000000000000000000000000073ffffffffffffffffffffffffffffffffffffffff163073ffffffffffffffffffffffffffffffffffffffff16146119e8576040517fe07c8dba00000000000000000000000000000000000000000000000000000000815260040160405180910390fd5b565b5f6119f3611abb565b90505f815f015f9054906101000a900473ffffffffffffffffffffffffffffffffffffffff16905082825f015f6101000a81548173ffffffffffffffffffffffffffffffffffffffff021916908373ffffffffffffffffffffffffffffffffffffffff1602179055508273ffffffffffffffffffffffffffffffffffffffff168173ffffffffffffffffffffffffffffffffffffffff167f8be0079c531659141344cd1fd0a4f28419497f9722a3daafe3b4186f6b6457e060405160405180910390a3505050565b5f7f9016d09d72d40fdae2fd8ceac6b6234c7706214fd39c1cd1e609a0528c199300905090565b5f611aeb61133f565b90505f73ffffffffffffffffffffffffffffffffffffffff168373ffffffffffffffffffffffffffffffffffffffff1603611b5d57826040517f5b08ba18000000000000000000000000000000000000000000000000000000008152600401611b549190612c20565b60405180910390fd5b81816005015f8673ffffffffffffffffffffffffffffffffffffffff1673ffffffffffffffffffffffffffffffffffffffff1681526020019081526020015f205f8573ffffffffffffffffffffffffffffffffffffffff1673ffffffffffffffffffffffffffffffffffffffff1681526020019081526020015f205f6101000a81548160ff0219169083151502179055508273ffffffffffffffffffffffffffffffffffffffff168473ffffffffffffffffffffffffffffffffffffffff167f17307eab39ab6107e8899845ad3d59bd9653f200f220920489ca2b5937696c3184604051611c4b9190612ada565b60405180910390a350505050565b5f8373ffffffffffffffffffffffffffffffffffffffff163b1115611dfe578273ffffffffffffffffffffffffffffffffffffffff1663150b7a02868685856040518563ffffffff1660e01b8152600401611cb794939291906138c5565b6020604051808303815f875af1925050508015611cf257506040513d601f19601f82011682018060405250810190611cef9190613923565b60015b611d73573d805f8114611d20576040519150601f19603f3d011682016040523d82523d5f602084013e611d25565b606091505b505f815103611d6b57836040517f64a0ae92000000000000000000000000000000000000000000000000000000008152600401611d629190612c20565b60405180910390fd5b805160208201fd5b63150b7a0260e01b7bffffffffffffffffffffffffffffffffffffffffffffffffffffffff1916817bffffffffffffffffffffffffffffffffffffffffffffffffffffffff191614611dfc57836040517f64a0ae92000000000000000000000000000000000000000000000000000000008152600401611df39190612c20565b60405180910390fd5b505b5050505050565b606060018054611e14906131eb565b80601f0160208091040260200160405190810160405280929190818152602001828054611e40906131eb565b8015611e8b5780601f10611e6257610100808354040283529160200191611e8b565b820191905f5260205f20905b815481529060010190602001808311611e6e57829003601f168201915b5050505050905090565b60605f6001611ea3846124af565b0190505f8167ffffffffffffffff811115611ec157611ec0612cd1565b5b6040519080825280601f01601f191660200182016040528015611ef35781602001600182028036833780820191505090505b5090505f82602083010190505b600115611f54578080600190039150507f3031323334353637383961626364656600000000000000000000000000000000600a86061a8153600a8581611f4957611f4861394e565b5b0494505f8503611f00575b819350505050919050565b5f7f01ffc9a7000000000000000000000000000000000000000000000000000000007bffffffffffffffffffffffffffffffffffffffffffffffffffffffff1916827bffffffffffffffffffffffffffffffffffffffffffffffffffffffff1916149050919050565b5f80611fd261133f565b9050806002015f8481526020019081526020015f205f9054906101000a900473ffffffffffffffffffffffffffffffffffffffff16915050919050565b5f61201861133f565b9050818061205257505f73ffffffffffffffffffffffffffffffffffffffff168373ffffffffffffffffffffffffffffffffffffffff1614155b15612184575f61206185611366565b90505f73ffffffffffffffffffffffffffffffffffffffff168473ffffffffffffffffffffffffffffffffffffffff16141580156120cb57508373ffffffffffffffffffffffffffffffffffffffff168173ffffffffffffffffffffffffffffffffffffffff1614155b80156120de57506120dc818561113e565b155b1561212057836040517fa9fbf51f0000000000000000000000000000000000000000000000000000000081526004016121179190612c20565b60405180910390fd5b821561218257848673ffffffffffffffffffffffffffffffffffffffff168273ffffffffffffffffffffffffffffffffffffffff167f8c5be1e5ebec7d5bd14f71427d1e84f3dd0314c0f7b2291e5b200ac8c7c3b92560405160405180910390a45b505b84816004015f8681526020019081526020015f205f6101000a81548173ffffffffffffffffffffffffffffffffffffffff021916908373ffffffffffffffffffffffffffffffffffffffff1602179055505050505050565b5f7ff0c57e16840df040f15088dc2f81fe391c3923bec73e23a9662efc9c229c6a005f1b905090565b61220d612600565b612243576040517fd7e6bcf800000000000000000000000000000000000000000000000000000000815260040160405180910390fd5b565b61224d612205565b5f61225661133f565b905082815f0190816122689190613418565b508181600101908161227a9190613418565b50505050565b612288612205565b5f73ffffffffffffffffffffffffffffffffffffffff168173ffffffffffffffffffffffffffffffffffffffff16036122f8575f6040517f1e4fbdf70000000000000000000000000000000000000000000000000000000081526004016122ef9190612c20565b60405180910390fd5b612301816119ea565b50565b61230f83838361261e565b6123c2575f73ffffffffffffffffffffffffffffffffffffffff168373ffffffffffffffffffffffffffffffffffffffff160361238357806040517f7e27328900000000000000000000000000000000000000000000000000000000815260040161237a9190612cb0565b60405180910390fd5b81816040517f177e802f0000000000000000000000000000000000000000000000000000000081526004016123b992919061397b565b60405180910390fd5b505050565b6123d183836126de565b6123e56123dc611433565b5f858585611c59565b505050565b5f6124167f360894a13ba1a3210667c828492db98dca3e2076cc3735a920a3ca505d382bbc5f1b6127d1565b5f015f9054906101000a900473ffffffffffffffffffffffffffffffffffffffff16905090565b612446826127da565b8173ffffffffffffffffffffffffffffffffffffffff167fbc7cd75a20ee27fd9adebab32041f755214dbc6bffa90cc0225b39da2e5c2d3b60405160405180910390a25f815111156124a25761249c82826128a3565b506124ab565b6124aa612923565b5b5050565b5f805f90507a184f03e93ff9f4daa797ed6e38ed64bf6a1f010000000000000000831061250b577a184f03e93ff9f4daa797ed6e38ed64bf6a1f01000000000000000083816125015761250061394e565b5b0492506040810190505b6d04ee2d6d415b85acef81000000008310612548576d04ee2d6d415b85acef8100000000838161253e5761253d61394e565b5b0492506020810190505b662386f26fc10000831061257757662386f26fc10000838161256d5761256c61394e565b5b0492506010810190505b6305f5e10083106125a0576305f5e10083816125965761259561394e565b5b0492506008810190505b61271083106125c55761271083816125bb576125ba61394e565b5b0492506004810190505b606483106125e857606483816125de576125dd61394e565b5b0492506002810190505b600a83106125f7576001810190505b80915050919050565b5f61260961144c565b5f0160089054906101000a900460ff16905090565b5f8073ffffffffffffffffffffffffffffffffffffffff168373ffffffffffffffffffffffffffffffffffffffff16141580156126d557508273ffffffffffffffffffffffffffffffffffffffff168473ffffffffffffffffffffffffffffffffffffffff1614806126965750612695848461113e565b5b806126d457508273ffffffffffffffffffffffffffffffffffffffff166126bc836113ec565b73ffffffffffffffffffffffffffffffffffffffff16145b5b90509392505050565b5f73ffffffffffffffffffffffffffffffffffffffff168273ffffffffffffffffffffffffffffffffffffffff160361274e575f6040517f64a0ae920000000000000000000000000000000000000000000000000000000081526004016127459190612c20565b60405180910390fd5b5f61275a83835f611493565b90505f73ffffffffffffffffffffffffffffffffffffffff168173ffffffffffffffffffffffffffffffffffffffff16146127cc575f6040517f73c6ac6e0000000000000000000000000000000000000000000000000000000081526004016127c39190612c20565b60405180910390fd5b505050565b5f819050919050565b5f8173ffffffffffffffffffffffffffffffffffffffff163b0361283557806040517f4c9c8ce300000000000000000000000000000000000000000000000000000000815260040161282c9190612c20565b60405180910390fd5b806128617f360894a13ba1a3210667c828492db98dca3e2076cc3735a920a3ca505d382bbc5f1b6127d1565b5f015f6101000a81548173ffffffffffffffffffffffffffffffffffffffff021916908373ffffffffffffffffffffffffffffffffffffffff16021790555050565b60605f808473ffffffffffffffffffffffffffffffffffffffff16846040516128cc91906139dc565b5f60405180830381855af49150503d805f8114612904576040519150601f19603f3d011682016040523d82523d5f602084013e612909565b606091505b509150915061291985838361295f565b9250505092915050565b5f34111561295d576040517fb398979f00000000000000000000000000000000000000000000000000000000815260040160405180910390fd5b565b6060826129745761296f826129ec565b6129e4565b5f825114801561299a57505f8473ffffffffffffffffffffffffffffffffffffffff163b145b156129dc57836040517f9996b3150000000000000000000000000000000000000000000000000000000081526004016129d39190612c20565b60405180910390fd5b8190506129e5565b5b9392505050565b5f815111156129fd57805160208201fd5b6040517fd6bda27500000000000000000000000000000000000000000000000000000000815260040160405180910390fd5b5f604051905090565b5f80fd5b5f80fd5b5f7fffffffff0000000000000000000000000000000000000000000000000000000082169050919050565b612a7481612a40565b8114612a7e575f80fd5b50565b5f81359050612a8f81612a6b565b92915050565b5f60208284031215612aaa57612aa9612a38565b5b5f612ab784828501612a81565b91505092915050565b5f8115159050919050565b612ad481612ac0565b82525050565b5f602082019050612aed5f830184612acb565b92915050565b5f81519050919050565b5f82825260208201905092915050565b8281835e5f83830152505050565b5f601f19601f8301169050919050565b5f612b3582612af3565b612b3f8185612afd565b9350612b4f818560208601612b0d565b612b5881612b1b565b840191505092915050565b5f6020820190508181035f830152612b7b8184612b2b565b905092915050565b5f819050919050565b612b9581612b83565b8114612b9f575f80fd5b50565b5f81359050612bb081612b8c565b92915050565b5f60208284031215612bcb57612bca612a38565b5b5f612bd884828501612ba2565b91505092915050565b5f73ffffffffffffffffffffffffffffffffffffffff82169050919050565b5f612c0a82612be1565b9050919050565b612c1a81612c00565b82525050565b5f602082019050612c335f830184612c11565b92915050565b612c4281612c00565b8114612c4c575f80fd5b50565b5f81359050612c5d81612c39565b92915050565b5f8060408385031215612c7957612c78612a38565b5b5f612c8685828601612c4f565b9250506020612c9785828601612ba2565b9150509250929050565b612caa81612b83565b82525050565b5f602082019050612cc35f830184612ca1565b92915050565b5f80fd5b5f80fd5b7f4e487b71000000000000000000000000000000000000000000000000000000005f52604160045260245ffd5b612d0782612b1b565b810181811067ffffffffffffffff82111715612d2657612d25612cd1565b5b80604052505050565b5f612d38612a2f565b9050612d448282612cfe565b919050565b5f67ffffffffffffffff821115612d6357612d62612cd1565b5b612d6c82612b1b565b9050602081019050919050565b828183375f83830152505050565b5f612d99612d9484612d49565b612d2f565b905082815260208101848484011115612db557612db4612ccd565b5b612dc0848285612d79565b509392505050565b5f82601f830112612ddc57612ddb612cc9565b5b8135612dec848260208601612d87565b91505092915050565b5f805f8060808587031215612e0d57612e0c612a38565b5b5f85013567ffffffffffffffff811115612e2a57612e29612a3c565b5b612e3687828801612dc8565b945050602085013567ffffffffffffffff811115612e5757612e56612a3c565b5b612e6387828801612dc8565b935050604085013567ffffffffffffffff811115612e8457612e83612a3c565b5b612e9087828801612dc8565b9250506060612ea187828801612ba2565b91505092959194509250565b5f805f60608486031215612ec457612ec3612a38565b5b5f612ed186828701612c4f565b9350506020612ee286828701612c4f565b9250506040612ef386828701612ba2565b9150509250925092565b5f67ffffffffffffffff821115612f1757612f16612cd1565b5b612f2082612b1b565b9050602081019050919050565b5f612f3f612f3a84612efd565b612d2f565b905082815260208101848484011115612f5b57612f5a612ccd565b5b612f66848285612d79565b509392505050565b5f82601f830112612f8257612f81612cc9565b5b8135612f92848260208601612f2d565b91505092915050565b5f8060408385031215612fb157612fb0612a38565b5b5f612fbe85828601612c4f565b925050602083013567ffffffffffffffff811115612fdf57612fde612a3c565b5b612feb85828601612f6e565b9150509250929050565b5f819050919050565b61300781612ff5565b82525050565b5f6020820190506130205f830184612ffe565b92915050565b5f6020828403121561303b5761303a612a38565b5b5f82013567ffffffffffffffff81111561305857613057612a3c565b5b61306484828501612dc8565b91505092915050565b5f6020828403121561308257613081612a38565b5b5f61308f84828501612c4f565b91505092915050565b6130a181612ac0565b81146130ab575f80fd5b50565b5f813590506130bc81613098565b92915050565b5f80604083850312156130d8576130d7612a38565b5b5f6130e585828601612c4f565b92505060206130f6858286016130ae565b9150509250929050565b5f805f806080858703121561311857613117612a38565b5b5f61312587828801612c4f565b945050602061313687828801612c4f565b935050604061314787828801612ba2565b925050606085013567ffffffffffffffff81111561316857613167612a3c565b5b61317487828801612f6e565b91505092959194509250565b5f806040838503121561319657613195612a38565b5b5f6131a385828601612c4f565b92505060206131b485828601612c4f565b9150509250929050565b7f4e487b71000000000000000000000000000000000000000000000000000000005f52602260045260245ffd5b5f600282049050600182168061320257607f821691505b602082108103613215576132146131be565b5b50919050565b7f4e487b71000000000000000000000000000000000000000000000000000000005f52601160045260245ffd5b5f61325282612b83565b915061325d83612b83565b92508282039050818111156132755761327461321b565b5b92915050565b5f819050815f5260205f209050919050565b5f6020601f8301049050919050565b5f82821b905092915050565b5f600883026132d77fffffffffffffffffffffffffffffffffffffffffffffffffffffffffffffffff8261329c565b6132e1868361329c565b95508019841693508086168417925050509392505050565b5f819050919050565b5f61331c61331761331284612b83565b6132f9565b612b83565b9050919050565b5f819050919050565b61333583613302565b61334961334182613323565b8484546132a8565b825550505050565b5f90565b61335d613351565b61336881848461332c565b505050565b5b8181101561338b576133805f82613355565b60018101905061336e565b5050565b601f8211156133d0576133a18161327b565b6133aa8461328d565b810160208510156133b9578190505b6133cd6133c58561328d565b83018261336d565b50505b505050565b5f82821c905092915050565b5f6133f05f19846008026133d5565b1980831691505092915050565b5f61340883836133e1565b9150826002028217905092915050565b61342182612af3565b67ffffffffffffffff81111561343a57613439612cd1565b5b61344482546131eb565b61344f82828561338f565b5f60209050601f831160018114613480575f841561346e578287015190505b61347885826133fd565b8655506134df565b601f19841661348e8661327b565b5f5b828110156134b557848901518255600182019150602085019450602081019050613490565b868310156134d257848901516134ce601f8916826133e1565b8355505b6001600288020188555050505b505050505050565b5f819050919050565b5f67ffffffffffffffff82169050919050565b5f61351d613518613513846134e7565b6132f9565b6134f0565b9050919050565b61352d81613503565b82525050565b5f6020820190506135465f830184613524565b92915050565b5f60608201905061355f5f830186612c11565b61356c6020830185612ca1565b6135796040830184612c11565b949350505050565b7f4d794e46543a206d696e7420746f207a65726f206164647265737300000000005f82015250565b5f6135b5601b83612afd565b91506135c082613581565b602082019050919050565b5f6020820190508181035f8301526135e2816135a9565b9050919050565b7f4d794e46543a20616d6f756e74206d75737420626520677265617465722074685f8201527f616e203000000000000000000000000000000000000000000000000000000000602082015250565b5f613643602483612afd565b915061364e826135e9565b604082019050919050565b5f6020820190508181035f83015261367081613637565b9050919050565b5f61368182612b83565b915061368c83612b83565b92508282019050808211156136a4576136a361321b565b5b92915050565b7f4d794e46543a206d617820737570706c792065786365656465640000000000005f82015250565b5f6136de601a83612afd565b91506136e9826136aa565b602082019050919050565b5f6020820190508181035f83015261370b816136d2565b9050919050565b5f61371c82612b83565b91507fffffffffffffffffffffffffffffffffffffffffffffffffffffffffffffffff820361374e5761374d61321b565b5b600182019050919050565b7f4d794e46543a206e6577206d617820737570706c7920746f6f206c6f770000005f82015250565b5f61378d601d83612afd565b915061379882613759565b602082019050919050565b5f6020820190508181035f8301526137ba81613781565b9050919050565b5f81905092915050565b5f6137d582612af3565b6137df81856137c1565b93506137ef818560208601612b0d565b80840191505092915050565b5f61380682856137cb565b915061381282846137cb565b91508190509392505050565b61382781612ff5565b8114613831575f80fd5b50565b5f815190506138428161381e565b92915050565b5f6020828403121561385d5761385c612a38565b5b5f61386a84828501613834565b91505092915050565b5f81519050919050565b5f82825260208201905092915050565b5f61389782613873565b6138a1818561387d565b93506138b1818560208601612b0d565b6138ba81612b1b565b840191505092915050565b5f6080820190506138d85f830187612c11565b6138e56020830186612c11565b6138f26040830185612ca1565b8181036060830152613904818461388d565b905095945050505050565b5f8151905061391d81612a6b565b92915050565b5f6020828403121561393857613937612a38565b5b5f6139458482850161390f565b91505092915050565b7f4e487b71000000000000000000000000000000000000000000000000000000005f52601260045260245ffd5b5f60408201905061398e5f830185612c11565b61399b6020830184612ca1565b9392505050565b5f81905092915050565b5f6139b682613873565b6139c081856139a2565b93506139d0818560208601612b0d565b80840191505092915050565b5f6139e782846139ac565b91508190509291505056fea26469706673582212201090e49cef1873b5e463522debee645371696e3d72be0feee51c7d86b304702464736f6c63430008190033","linkReferences":{}},"methodIdentifiers":{"UPGRADE_INTERFACE_VERSION()":"ad3cb1cc","approve(address,uint256)":"095ea7b3","balanceOf(address)":"70a08231","getApproved(uint256)":"081812fc","getCurrentTokenId()":"56189236","initialize(string,string,string,uint256)":"1c5d2b49","isApprovedForAll(address,address)":"e985e9c5","maxSupply()":"d5abeb01","mint(address)":"6a627842","mintBatch(address,uint256)":"248b71fc","name()":"06fdde03","owner()":"8da5cb5b","ownerOf(uint256)":"6352211e","proxiableUUID()":"52d1902d","renounceOwnership()":"715018a6","safeTransferFrom(address,address,uint256)":"42842e0e","safeTransferFrom(address,address,uint256,bytes)":"b88d4fde","setApprovalForAll(address,bool)":"a22cb465","setBaseURI(string)":"55f804b3","setMaxSupply(uint256)":"6f8b44b0","supportsInterface(bytes4)":"01ffc9a7","symbol()":"95d89b41","tokenURI(uint256)":"c87b56dd","totalSupply()":"18160ddd","transferFrom(address,address,uint256)":"23b872dd","transferOwnership(address)":"f2fde38b","upgradeToAndCall(address,bytes)":"4f1ef286","version()":"54fd4d50"},"id":43}