{"abi":[{"type":"constructor","inputs":[],"stateMutability":"nonpayable"},{"type":"function","name":"approve","inputs":[{"name":"to","type":"address","internalType":"address"},{"name":"tokenId","type":"uint256","internalType":"uint256"}],"outputs":[],"stateMutability":"nonpayable"},{"type":"function","name":"balanceOf","inputs":[{"name":"owner","type":"address","internalType":"address"}],"outputs":[{"name":"","type":"uint256","internalType":"uint256"}],"stateMutability":"view"},{"type":"function","name":"getApproved","inputs":[{"name":"tokenId","type":"uint256","internalType":"uint256"}],"outputs":[{"name":"","type":"address","internalType":"address"}],"stateMutability":"view"},{"type":"function","name":"getCurrentTokenId","inputs":[],"outputs":[{"name":"","type":"uint256","internalType":"uint256"}],"stateMutability":"view"},{"type":"function","name":"initialize","inputs":[{"name":"name","type":"string","internalType":"string"},{"name":"symbol","type":"string","internalType":"string"},{"name":"baseTokenURI","type":"string","internalType":"string"},{"name":"_maxSupply","type":"uint256","internalType":"uint256"}],"outputs":[],"stateMutability":"nonpayable"},{"type":"function","name":"isApprovedForAll","inputs":[{"name":"owner","type":"address","internalType":"address"},{"name":"operator","type":"address","internalType":"address"}],"outputs":[{"name":"","type":"bool","internalType":"bool"}],"stateMutability":"view"},{"type":"function","name":"maxSupply","inputs":[],"outputs":[{"name":"","type":"uint256","internalType":"uint256"}],"stateMutability":"view"},{"type":"function","name":"mint","inputs":[{"name":"to","type":"address","internalType":"address"}],"outputs":[{"name":"","type":"uint256","internalType":"uint256"}],"stateMutability":"nonpayable"},{"type":"function","name":"name","inputs":[],"outputs":[{"name":"","type":"string","internalType":"string"}],"stateMutability":"view"},{"type":"function","name":"owner","inputs":[],"outputs":[{"name":"","type":"address","internalType":"address"}],"stateMutability":"view"},{"type":"function","name":"ownerOf","inputs":[{"name":"tokenId","type":"uint256","internalType":"uint256"}],"outputs":[{"name":"","type":"address","internalType":"address"}],"stateMutability":"view"},{"type":"function","name":"renounceOwnership","inputs":[],"outputs":[],"stateMutability":"nonpayable"},{"type":"function","name":"safeTransferFrom","inputs":[{"name":"from","type":"address","internalType":"address"},{"name":"to","type":"address","internalType":"address"},{"name":"tokenId","type":"uint256","internalType":"uint256"}],"outputs":[],"stateMutability":"nonpayable"},{"type":"function","name":"safeTransferFrom","inputs":[{"name":"from","type":"address","internalType":"address"},{"name":"to","type":"address","internalType":"address"},{"name":"tokenId","type":"uint256","internalType":"uint256"},{"name":"data","type":"bytes","internalType":"bytes"}],"outputs":[],"stateMutability":"nonpayable"},{"type":"function","name":"setApprovalForAll","inputs":[{"name":"operator","type":"address","internalType":"address"},{"name":"approved","type":"bool","internalType":"bool"}],"outputs":[],"stateMutability":"nonpayable"},{"type":"function","name":"supportsInterface","inputs":[{"name":"interfaceId","type":"bytes4","internalType":"bytes4"}],"outputs":[{"name":"","type":"bool","internalType":"bool"}],"stateMutability":"view"},{"type":"function","name":"symbol","inputs":[],"outputs":[{"name":"","type":"string","internalType":"string"}],"stateMutability":"view"},{"type":"function","name":"tokenURI","inputs":[{"name":"tokenId","type":"uint256","internalType":"uint256"}],"outputs":[{"name":"","type":"string","internalType":"string"}],"stateMutability":"view"},{"type":"function","name":"totalSupply","inputs":[],"outputs":[{"name":"","type":"uint256","internalType":"uint256"}],"stateMutability":"view"},{"type":"function","name":"transferFrom","inputs":[{"name":"from","type":"address","internalType":"address"},{"name":"to","type":"address","internalType":"address"},{"name":"tokenId","type":"uint256","internalType":"uint256"}],"outputs":[],"stateMutability":"nonpayable"},{"type":"function","name":"transferOwnership","inputs":[{"name":"newOwner","type":"address","internalType":"address"}],"outputs":[],"stateMutability":"nonpayable"},{"type":"function","name":"version","inputs":[],"outputs":[{"name":"","type":"string","internalType":"string"}],"stateMutability":"pure"},{"type":"event","name":"Approval","inputs":[{"name":"owner","type":"address","indexed":true,"internalType":"address"},{"name":"approved","type":"address","indexed":true,"internalType":"address"},{"name":"tokenId","type":"uint256","indexed":true,"internalType":"uint256"}],"anonymous":false},{"type":"event","name":"ApprovalForAll","inputs":[{"name":"owner","type":"address","indexed":true,"internalType":"address"},{"name":"operator","type":"address","indexed":true,"internalType":"address"},{"name":"approved","type":"bool","indexed":false,"internalType":"bool"}],"anonymous":false},{"type":"event","name":"Initialized","inputs":[{"name":"version","type":"uint64","indexed":false,"internalType":"uint64"}],"anonymous":false},{"type":"event","name":"NFTMinted","inputs":[{"name":"to","type":"address","indexed":true,"internalType":"address"},{"name":"tokenId","type":"uint256","indexed":true,"internalType":"uint256"}],"anonymous":false},{"type":"event","name":"OwnershipTransferred","inputs":[{"name":"previousOwner","type":"address","indexed":true,"internalType":"address"},{"name":"newOwner","type":"address","indexed":true,"internalType":"address"}],"anonymous":false},{"type":"event","name":"Transfer","inputs":[{"name":"from","type":"address","indexed":true,"internalType":"address"},{"name":"to","type":"address","indexed":true,"internalType":"address"},{"name":"tokenId","type":"uint256","indexed":true,"internalType":"uint256"}],"anonymous":false},{"type":"error","name":"ERC721IncorrectOwner","inputs":[{"name":"sender","type":"address","internalType":"address"},{"name":"tokenId","type":"uint256","internalType":"uint256"},{"name":"owner","type":"address","internalType":"address"}]},{"type":"error","name":"ERC721InsufficientApproval","inputs":[{"name":"operator","type":"address","internalType":"address"},{"name":"tokenId","type":"uint256","internalType":"uint256"}]},{"type":"error","name":"ERC721InvalidApprover","inputs":[{"name":"approver","type":"address","internalType":"address"}]},{"type":"error","name":"ERC721InvalidOperator","inputs":[{"name":"operator","type":"address","internalType":"address"}]},{"type":"error","name":"ERC721InvalidOwner","inputs":[{"name":"owner","type":"address","internalType":"address"}]},{"type":"error","name":"ERC721InvalidReceiver","inputs":[{"name":"receiver","type":"address","internalType":"address"}]},{"type":"error","name":"ERC721InvalidSender","inputs":[{"name":"sender","type":"address","internalType":"address"}]},{"type":"error","name":"ERC721NonexistentToken","inputs":[{"name":"tokenId","type":"uint256","internalType":"uint256"}]},{"type":"error","name":"InvalidInitialization","inputs":[]},{"type":"error","name":"NotInitializing","inputs":[]},{"type":"error","name":"OwnableInvalidOwner","inputs":[{"name":"owner","type":"address","internalType":"address"}]},{"type":"error","name":"OwnableUnauthorizedAccount","inputs":[{"name":"account","type":"address","internalType":"address"}]}],"bytecode":{"object":"0x6080604052348015600e575f80fd5b50612c3d8061001c5f395ff3fe608060405234801561000f575f80fd5b5060043610610140575f3560e01c80636a627842116100b6578063a22cb4651161007a578063a22cb46514610362578063b88d4fde1461037e578063c87b56dd1461039a578063d5abeb01146103ca578063e985e9c5146103e8578063f2fde38b1461041857610140565b80636a627842146102bc57806370a08231146102ec578063715018a61461031c5780638da5cb5b1461032657806395d89b411461034457610140565b80631c5d2b49116101085780631c5d2b49146101fc57806323b872dd1461021857806342842e0e1461023457806354fd4d5014610250578063561892361461026e5780636352211e1461028c57610140565b806301ffc9a71461014457806306fdde0314610174578063081812fc14610192578063095ea7b3146101c257806318160ddd146101de575b5f80fd5b61015e60048036038101906101599190611f4a565b610434565b60405161016b9190611f8f565b60405180910390f35b61017c610515565b6040516101899190612018565b60405180910390f35b6101ac60048036038101906101a7919061206b565b6105b2565b6040516101b991906120d5565b60405180910390f35b6101dc60048036038101906101d79190612118565b6105cd565b005b6101e66105e3565b6040516101f39190612165565b60405180910390f35b610216600480360381019061021191906122aa565b6105f7565b005b610232600480360381019061022d9190612362565b6107a3565b005b61024e60048036038101906102499190612362565b6108a2565b005b6102586108c1565b6040516102659190612018565b60405180910390f35b6102766108fe565b6040516102839190612165565b60405180910390f35b6102a660048036038101906102a1919061206b565b610906565b6040516102b391906120d5565b60405180910390f35b6102d660048036038101906102d191906123b2565b610917565b6040516102e39190612165565b60405180910390f35b610306600480360381019061030191906123b2565b610a46565b6040516103139190612165565b60405180910390f35b610324610b0a565b005b61032e610b1d565b60405161033b91906120d5565b60405180910390f35b61034c610b52565b6040516103599190612018565b60405180910390f35b61037c60048036038101906103779190612407565b610bf0565b005b610398600480360381019061039391906124e3565b610c06565b005b6103b460048036038101906103af919061206b565b610c2b565b6040516103c19190612018565b60405180910390f35b6103d2610c91565b6040516103df9190612165565b60405180910390f35b61040260048036038101906103fd9190612563565b610c97565b60405161040f9190611f8f565b60405180910390f35b610432600480360381019061042d91906123b2565b610d33565b005b5f7f80ac58cd000000000000000000000000000000000000000000000000000000007bffffffffffffffffffffffffffffffffffffffffffffffffffffffff1916827bffffffffffffffffffffffffffffffffffffffffffffffffffffffff191614806104fe57507f5b5e139f000000000000000000000000000000000000000000000000000000007bffffffffffffffffffffffffffffffffffffffffffffffffffffffff1916827bffffffffffffffffffffffffffffffffffffffffffffffffffffffff1916145b8061050e575061050d82610db7565b5b9050919050565b60605f610520610e20565b9050805f018054610530906125ce565b80601f016020809104026020016040519081016040528092919081815260200182805461055c906125ce565b80156105a75780601f1061057e576101008083540402835291602001916105a7565b820191905f5260205f20905b81548152906001019060200180831161058a57829003601f168201915b505050505091505090565b5f6105bc82610e47565b506105c682610ecd565b9050919050565b6105df82826105da610f14565b610f1b565b5050565b5f60015f546105f2919061262b565b905090565b5f610600610f2d565b90505f815f0160089054906101000a900460ff161590505f825f015f9054906101000a900467ffffffffffffffff1690505f808267ffffffffffffffff161480156106485750825b90505f60018367ffffffffffffffff1614801561067b57505f3073ffffffffffffffffffffffffffffffffffffffff163b145b905081158015610689575080155b156106c0576040517ff92ee8a900000000000000000000000000000000000000000000000000000000815260040160405180910390fd5b6001855f015f6101000a81548167ffffffffffffffff021916908367ffffffffffffffff160217905550831561070d576001855f0160086101000a81548160ff0219169083151502179055505b6107178989610f40565b61072033610f56565b866001908161072f91906127fb565b508560028190555060015f819055508315610798575f855f0160086101000a81548160ff0219169083151502179055507fc7f505b2f371ae2175ee4913f4499e1f2633a7b5936321eed1cdaeb6115181d2600160405161078f9190612916565b60405180910390a15b505050505050505050565b5f73ffffffffffffffffffffffffffffffffffffffff168273ffffffffffffffffffffffffffffffffffffffff1603610813575f6040517f64a0ae9200000000000000000000000000000000000000000000000000000000815260040161080a91906120d5565b60405180910390fd5b5f6108268383610821610f14565b610f6a565b90508373ffffffffffffffffffffffffffffffffffffffff168173ffffffffffffffffffffffffffffffffffffffff161461089c578382826040517f64283d7b0000000000000000000000000000000000000000000000000000000081526004016108939392919061292f565b60405180910390fd5b50505050565b6108bc83838360405180602001604052805f815250610c06565b505050565b60606040518060400160405280600581526020017f312e302e30000000000000000000000000000000000000000000000000000000815250905090565b5f8054905090565b5f61091082610e47565b9050919050565b5f610920611187565b5f73ffffffffffffffffffffffffffffffffffffffff168273ffffffffffffffffffffffffffffffffffffffff160361098e576040517f08c379a0000000000000000000000000000000000000000000000000000000008152600401610985906129ae565b60405180910390fd5b6002545f5411156109d4576040517f08c379a00000000000000000000000000000000000000000000000000000000081526004016109cb90612a16565b60405180910390fd5b5f805490505f808154809291906109ea90612a34565b91905055506109f9838261120e565b808373ffffffffffffffffffffffffffffffffffffffff167f4cc0a9c4a99ddc700de1af2c9f916a7cbfdb71f14801ccff94061ad1ef8a804060405160405180910390a380915050919050565b5f80610a50610e20565b90505f73ffffffffffffffffffffffffffffffffffffffff168373ffffffffffffffffffffffffffffffffffffffff1603610ac2575f6040517f89c62b64000000000000000000000000000000000000000000000000000000008152600401610ab991906120d5565b60405180910390fd5b806003015f8473ffffffffffffffffffffffffffffffffffffffff1673ffffffffffffffffffffffffffffffffffffffff1681526020019081526020015f2054915050919050565b610b12611187565b610b1b5f61122b565b565b5f80610b276112fc565b9050805f015f9054906101000a900473ffffffffffffffffffffffffffffffffffffffff1691505090565b60605f610b5d610e20565b9050806001018054610b6e906125ce565b80601f0160208091040260200160405190810160405280929190818152602001828054610b9a906125ce565b8015610be55780601f10610bbc57610100808354040283529160200191610be5565b820191905f5260205f20905b815481529060010190602001808311610bc857829003601f168201915b505050505091505090565b610c02610bfb610f14565b8383611323565b5050565b610c118484846107a3565b610c25610c1c610f14565b8585858561149a565b50505050565b6060610c3682610e47565b505f610c40611646565b90505f815111610c5e5760405180602001604052805f815250610c89565b80610c68846116d6565b604051602001610c79929190612ab5565b6040516020818303038152906040525b915050919050565b60025481565b5f80610ca1610e20565b9050806005015f8573ffffffffffffffffffffffffffffffffffffffff1673ffffffffffffffffffffffffffffffffffffffff1681526020019081526020015f205f8473ffffffffffffffffffffffffffffffffffffffff1673ffffffffffffffffffffffffffffffffffffffff1681526020019081526020015f205f9054906101000a900460ff1691505092915050565b610d3b611187565b5f73ffffffffffffffffffffffffffffffffffffffff168173ffffffffffffffffffffffffffffffffffffffff1603610dab575f6040517f1e4fbdf7000000000000000000000000000000000000000000000000000000008152600401610da291906120d5565b60405180910390fd5b610db48161122b565b50565b5f7f01ffc9a7000000000000000000000000000000000000000000000000000000007bffffffffffffffffffffffffffffffffffffffffffffffffffffffff1916827bffffffffffffffffffffffffffffffffffffffffffffffffffffffff1916149050919050565b5f7f80bb2b638cc20bc4d0a60d66940f3ab4a00c1d7b313497ca82fb0b4ab0079300905090565b5f80610e52836117a0565b90505f73ffffffffffffffffffffffffffffffffffffffff168173ffffffffffffffffffffffffffffffffffffffff1603610ec457826040517f7e273289000000000000000000000000000000000000000000000000000000008152600401610ebb9190612165565b60405180910390fd5b80915050919050565b5f80610ed7610e20565b9050806004015f8481526020019081526020015f205f9054906101000a900473ffffffffffffffffffffffffffffffffffffffff16915050919050565b5f33905090565b610f2883838360016117e7565b505050565b5f80610f376119b4565b90508091505090565b610f486119dd565b610f528282611a1d565b5050565b610f5e6119dd565b610f6781611a58565b50565b5f80610f74610e20565b90505f610f80856117a0565b90505f73ffffffffffffffffffffffffffffffffffffffff168473ffffffffffffffffffffffffffffffffffffffff1614610fc157610fc0818587611adc565b5b5f73ffffffffffffffffffffffffffffffffffffffff168173ffffffffffffffffffffffffffffffffffffffff161461104e576110005f865f806117e7565b6001826003015f8373ffffffffffffffffffffffffffffffffffffffff1673ffffffffffffffffffffffffffffffffffffffff1681526020019081526020015f205f82825403925050819055505b5f73ffffffffffffffffffffffffffffffffffffffff168673ffffffffffffffffffffffffffffffffffffffff16146110cf576001826003015f8873ffffffffffffffffffffffffffffffffffffffff1673ffffffffffffffffffffffffffffffffffffffff1681526020019081526020015f205f82825401925050819055505b85826002015f8781526020019081526020015f205f6101000a81548173ffffffffffffffffffffffffffffffffffffffff021916908373ffffffffffffffffffffffffffffffffffffffff160217905550848673ffffffffffffffffffffffffffffffffffffffff168273ffffffffffffffffffffffffffffffffffffffff167fddf252ad1be2c89b69c2b068fc378daa952ba7f163c4a11628f55a4df523b3ef60405160405180910390a480925050509392505050565b61118f610f14565b73ffffffffffffffffffffffffffffffffffffffff166111ad610b1d565b73ffffffffffffffffffffffffffffffffffffffff161461120c576111d0610f14565b6040517f118cdaa700000000000000000000000000000000000000000000000000000000815260040161120391906120d5565b60405180910390fd5b565b611227828260405180602001604052805f815250611b9f565b5050565b5f6112346112fc565b90505f815f015f9054906101000a900473ffffffffffffffffffffffffffffffffffffffff16905082825f015f6101000a81548173ffffffffffffffffffffffffffffffffffffffff021916908373ffffffffffffffffffffffffffffffffffffffff1602179055508273ffffffffffffffffffffffffffffffffffffffff168173ffffffffffffffffffffffffffffffffffffffff167f8be0079c531659141344cd1fd0a4f28419497f9722a3daafe3b4186f6b6457e060405160405180910390a3505050565b5f7f9016d09d72d40fdae2fd8ceac6b6234c7706214fd39c1cd1e609a0528c199300905090565b5f61132c610e20565b90505f73ffffffffffffffffffffffffffffffffffffffff168373ffffffffffffffffffffffffffffffffffffffff160361139e57826040517f5b08ba1800000000000000000000000000000000000000000000000000000000815260040161139591906120d5565b60405180910390fd5b81816005015f8673ffffffffffffffffffffffffffffffffffffffff1673ffffffffffffffffffffffffffffffffffffffff1681526020019081526020015f205f8573ffffffffffffffffffffffffffffffffffffffff1673ffffffffffffffffffffffffffffffffffffffff1681526020019081526020015f205f6101000a81548160ff0219169083151502179055508273ffffffffffffffffffffffffffffffffffffffff168473ffffffffffffffffffffffffffffffffffffffff167f17307eab39ab6107e8899845ad3d59bd9653f200f220920489ca2b5937696c318460405161148c9190611f8f565b60405180910390a350505050565b5f8373ffffffffffffffffffffffffffffffffffffffff163b111561163f578273ffffffffffffffffffffffffffffffffffffffff1663150b7a02868685856040518563ffffffff1660e01b81526004016114f89493929190612b2a565b6020604051808303815f875af192505050801561153357506040513d601f19601f820116820180604052508101906115309190612b88565b60015b6115b4573d805f8114611561576040519150601f19603f3d011682016040523d82523d5f602084013e611566565b606091505b505f8151036115ac57836040517f64a0ae920000000000000000000000000000000000000000000000000000000081526004016115a391906120d5565b60405180910390fd5b805160208201fd5b63150b7a0260e01b7bffffffffffffffffffffffffffffffffffffffffffffffffffffffff1916817bffffffffffffffffffffffffffffffffffffffffffffffffffffffff19161461163d57836040517f64a0ae9200000000000000000000000000000000000000000000000000000000815260040161163491906120d5565b60405180910390fd5b505b5050505050565b606060018054611655906125ce565b80601f0160208091040260200160405190810160405280929190818152602001828054611681906125ce565b80156116cc5780601f106116a3576101008083540402835291602001916116cc565b820191905f5260205f20905b8154815290600101906020018083116116af57829003601f168201915b5050505050905090565b60605f60016116e484611bc2565b0190505f8167ffffffffffffffff81111561170257611701612186565b5b6040519080825280601f01601f1916602001820160405280156117345781602001600182028036833780820191505090505b5090505f82602083010190505b600115611795578080600190039150507f3031323334353637383961626364656600000000000000000000000000000000600a86061a8153600a858161178a57611789612bb3565b5b0494505f8503611741575b819350505050919050565b5f806117aa610e20565b9050806002015f8481526020019081526020015f205f9054906101000a900473ffffffffffffffffffffffffffffffffffffffff16915050919050565b5f6117f0610e20565b9050818061182a57505f73ffffffffffffffffffffffffffffffffffffffff168373ffffffffffffffffffffffffffffffffffffffff1614155b1561195c575f61183985610e47565b90505f73ffffffffffffffffffffffffffffffffffffffff168473ffffffffffffffffffffffffffffffffffffffff16141580156118a357508373ffffffffffffffffffffffffffffffffffffffff168173ffffffffffffffffffffffffffffffffffffffff1614155b80156118b657506118b48185610c97565b155b156118f857836040517fa9fbf51f0000000000000000000000000000000000000000000000000000000081526004016118ef91906120d5565b60405180910390fd5b821561195a57848673ffffffffffffffffffffffffffffffffffffffff168273ffffffffffffffffffffffffffffffffffffffff167f8c5be1e5ebec7d5bd14f71427d1e84f3dd0314c0f7b2291e5b200ac8c7c3b92560405160405180910390a45b505b84816004015f8681526020019081526020015f205f6101000a81548173ffffffffffffffffffffffffffffffffffffffff021916908373ffffffffffffffffffffffffffffffffffffffff1602179055505050505050565b5f7ff0c57e16840df040f15088dc2f81fe391c3923bec73e23a9662efc9c229c6a005f1b905090565b6119e5611d13565b611a1b576040517fd7e6bcf800000000000000000000000000000000000000000000000000000000815260040160405180910390fd5b565b611a256119dd565b5f611a2e610e20565b905082815f019081611a4091906127fb565b5081816001019081611a5291906127fb565b50505050565b611a606119dd565b5f73ffffffffffffffffffffffffffffffffffffffff168173ffffffffffffffffffffffffffffffffffffffff1603611ad0575f6040517f1e4fbdf7000000000000000000000000000000000000000000000000000000008152600401611ac791906120d5565b60405180910390fd5b611ad98161122b565b50565b611ae7838383611d31565b611b9a575f73ffffffffffffffffffffffffffffffffffffffff168373ffffffffffffffffffffffffffffffffffffffff1603611b5b57806040517f7e273289000000000000000000000000000000000000000000000000000000008152600401611b529190612165565b60405180910390fd5b81816040517f177e802f000000000000000000000000000000000000000000000000000000008152600401611b91929190612be0565b60405180910390fd5b505050565b611ba98383611df1565b611bbd611bb4610f14565b5f85858561149a565b505050565b5f805f90507a184f03e93ff9f4daa797ed6e38ed64bf6a1f0100000000000000008310611c1e577a184f03e93ff9f4daa797ed6e38ed64bf6a1f0100000000000000008381611c1457611c13612bb3565b5b0492506040810190505b6d04ee2d6d415b85acef81000000008310611c5b576d04ee2d6d415b85acef81000000008381611c5157611c50612bb3565b5b0492506020810190505b662386f26fc100008310611c8a57662386f26fc100008381611c8057611c7f612bb3565b5b0492506010810190505b6305f5e1008310611cb3576305f5e1008381611ca957611ca8612bb3565b5b0492506008810190505b6127108310611cd8576127108381611cce57611ccd612bb3565b5b0492506004810190505b60648310611cfb5760648381611cf157611cf0612bb3565b5b0492506002810190505b600a8310611d0a576001810190505b80915050919050565b5f611d1c610f2d565b5f0160089054906101000a900460ff16905090565b5f8073ffffffffffffffffffffffffffffffffffffffff168373ffffffffffffffffffffffffffffffffffffffff1614158015611de857508273ffffffffffffffffffffffffffffffffffffffff168473ffffffffffffffffffffffffffffffffffffffff161480611da95750611da88484610c97565b5b80611de757508273ffffffffffffffffffffffffffffffffffffffff16611dcf83610ecd565b73ffffffffffffffffffffffffffffffffffffffff16145b5b90509392505050565b5f73ffffffffffffffffffffffffffffffffffffffff168273ffffffffffffffffffffffffffffffffffffffff1603611e61575f6040517f64a0ae92000000000000000000000000000000000000000000000000000000008152600401611e5891906120d5565b60405180910390fd5b5f611e6d83835f610f6a565b90505f73ffffffffffffffffffffffffffffffffffffffff168173ffffffffffffffffffffffffffffffffffffffff1614611edf575f6040517f73c6ac6e000000000000000000000000000000000000000000000000000000008152600401611ed691906120d5565b60405180910390fd5b505050565b5f604051905090565b5f80fd5b5f80fd5b5f7fffffffff0000000000000000000000000000000000000000000000000000000082169050919050565b611f2981611ef5565b8114611f33575f80fd5b50565b5f81359050611f4481611f20565b92915050565b5f60208284031215611f5f57611f5e611eed565b5b5f611f6c84828501611f36565b91505092915050565b5f8115159050919050565b611f8981611f75565b82525050565b5f602082019050611fa25f830184611f80565b92915050565b5f81519050919050565b5f82825260208201905092915050565b8281835e5f83830152505050565b5f601f19601f8301169050919050565b5f611fea82611fa8565b611ff48185611fb2565b9350612004818560208601611fc2565b61200d81611fd0565b840191505092915050565b5f6020820190508181035f8301526120308184611fe0565b905092915050565b5f819050919050565b61204a81612038565b8114612054575f80fd5b50565b5f8135905061206581612041565b92915050565b5f602082840312156120805761207f611eed565b5b5f61208d84828501612057565b91505092915050565b5f73ffffffffffffffffffffffffffffffffffffffff82169050919050565b5f6120bf82612096565b9050919050565b6120cf816120b5565b82525050565b5f6020820190506120e85f8301846120c6565b92915050565b6120f7816120b5565b8114612101575f80fd5b50565b5f81359050612112816120ee565b92915050565b5f806040838503121561212e5761212d611eed565b5b5f61213b85828601612104565b925050602061214c85828601612057565b9150509250929050565b61215f81612038565b82525050565b5f6020820190506121785f830184612156565b92915050565b5f80fd5b5f80fd5b7f4e487b71000000000000000000000000000000000000000000000000000000005f52604160045260245ffd5b6121bc82611fd0565b810181811067ffffffffffffffff821117156121db576121da612186565b5b80604052505050565b5f6121ed611ee4565b90506121f982826121b3565b919050565b5f67ffffffffffffffff82111561221857612217612186565b5b61222182611fd0565b9050602081019050919050565b828183375f83830152505050565b5f61224e612249846121fe565b6121e4565b90508281526020810184848401111561226a57612269612182565b5b61227584828561222e565b509392505050565b5f82601f8301126122915761229061217e565b5b81356122a184826020860161223c565b91505092915050565b5f805f80608085870312156122c2576122c1611eed565b5b5f85013567ffffffffffffffff8111156122df576122de611ef1565b5b6122eb8782880161227d565b945050602085013567ffffffffffffffff81111561230c5761230b611ef1565b5b6123188782880161227d565b935050604085013567ffffffffffffffff81111561233957612338611ef1565b5b6123458782880161227d565b925050606061235687828801612057565b91505092959194509250565b5f805f6060848603121561237957612378611eed565b5b5f61238686828701612104565b935050602061239786828701612104565b92505060406123a886828701612057565b9150509250925092565b5f602082840312156123c7576123c6611eed565b5b5f6123d484828501612104565b91505092915050565b6123e681611f75565b81146123f0575f80fd5b50565b5f81359050612401816123dd565b92915050565b5f806040838503121561241d5761241c611eed565b5b5f61242a85828601612104565b925050602061243b858286016123f3565b9150509250929050565b5f67ffffffffffffffff82111561245f5761245e612186565b5b61246882611fd0565b9050602081019050919050565b5f61248761248284612445565b6121e4565b9050828152602081018484840111156124a3576124a2612182565b5b6124ae84828561222e565b509392505050565b5f82601f8301126124ca576124c961217e565b5b81356124da848260208601612475565b91505092915050565b5f805f80608085870312156124fb576124fa611eed565b5b5f61250887828801612104565b945050602061251987828801612104565b935050604061252a87828801612057565b925050606085013567ffffffffffffffff81111561254b5761254a611ef1565b5b612557878288016124b6565b91505092959194509250565b5f806040838503121561257957612578611eed565b5b5f61258685828601612104565b925050602061259785828601612104565b9150509250929050565b7f4e487b71000000000000000000000000000000000000000000000000000000005f52602260045260245ffd5b5f60028204905060018216806125e557607f821691505b6020821081036125f8576125f76125a1565b5b50919050565b7f4e487b71000000000000000000000000000000000000000000000000000000005f52601160045260245ffd5b5f61263582612038565b915061264083612038565b9250828203905081811115612658576126576125fe565b5b92915050565b5f819050815f5260205f209050919050565b5f6020601f8301049050919050565b5f82821b905092915050565b5f600883026126ba7fffffffffffffffffffffffffffffffffffffffffffffffffffffffffffffffff8261267f565b6126c4868361267f565b95508019841693508086168417925050509392505050565b5f819050919050565b5f6126ff6126fa6126f584612038565b6126dc565b612038565b9050919050565b5f819050919050565b612718836126e5565b61272c61272482612706565b84845461268b565b825550505050565b5f90565b612740612734565b61274b81848461270f565b505050565b5b8181101561276e576127635f82612738565b600181019050612751565b5050565b601f8211156127b3576127848161265e565b61278d84612670565b8101602085101561279c578190505b6127b06127a885612670565b830182612750565b50505b505050565b5f82821c905092915050565b5f6127d35f19846008026127b8565b1980831691505092915050565b5f6127eb83836127c4565b9150826002028217905092915050565b61280482611fa8565b67ffffffffffffffff81111561281d5761281c612186565b5b61282782546125ce565b612832828285612772565b5f60209050601f831160018114612863575f8415612851578287015190505b61285b85826127e0565b8655506128c2565b601f1984166128718661265e565b5f5b8281101561289857848901518255600182019150602085019450602081019050612873565b868310156128b557848901516128b1601f8916826127c4565b8355505b6001600288020188555050505b505050505050565b5f819050919050565b5f67ffffffffffffffff82169050919050565b5f6129006128fb6128f6846128ca565b6126dc565b6128d3565b9050919050565b612910816128e6565b82525050565b5f6020820190506129295f830184612907565b92915050565b5f6060820190506129425f8301866120c6565b61294f6020830185612156565b61295c60408301846120c6565b949350505050565b7f53696d706c654e46543a206d696e7420746f207a65726f2061646472657373005f82015250565b5f612998601f83611fb2565b91506129a382612964565b602082019050919050565b5f6020820190508181035f8301526129c58161298c565b9050919050565b7f53696d706c654e46543a206d617820737570706c7920657863656564656400005f82015250565b5f612a00601e83611fb2565b9150612a0b826129cc565b602082019050919050565b5f6020820190508181035f830152612a2d816129f4565b9050919050565b5f612a3e82612038565b91507fffffffffffffffffffffffffffffffffffffffffffffffffffffffffffffffff8203612a7057612a6f6125fe565b5b600182019050919050565b5f81905092915050565b5f612a8f82611fa8565b612a998185612a7b565b9350612aa9818560208601611fc2565b80840191505092915050565b5f612ac08285612a85565b9150612acc8284612a85565b91508190509392505050565b5f81519050919050565b5f82825260208201905092915050565b5f612afc82612ad8565b612b068185612ae2565b9350612b16818560208601611fc2565b612b1f81611fd0565b840191505092915050565b5f608082019050612b3d5f8301876120c6565b612b4a60208301866120c6565b612b576040830185612156565b8181036060830152612b698184612af2565b905095945050505050565b5f81519050612b8281611f20565b92915050565b5f60208284031215612b9d57612b9c611eed565b5b5f612baa84828501612b74565b91505092915050565b7f4e487b71000000000000000000000000000000000000000000000000000000005f52601260045260245ffd5b5f604082019050612bf35f8301856120c6565b612c006020830184612156565b939250505056fea26469706673582212204b4730db81abdc9b59c01fedad22e14a7ebe39c3ca56756cf645991d117dca0864736f6c63430008190033","linkReferences":{}},"methodIdentifiers":{"approve(address,uint256)":"095ea7b3","balanceOf(address)":"70a08231","getApproved(uint256)":"081812fc","getCurrentTokenId()":"56189236","initialize(string,string,string,uint256)":"1c5d2b49","isApprovedForAll(address,address)":"e985e9c5","maxSupply()":"d5abeb01","mint(address)":"6a627842","name()":"06fdde03","owner()":"8da5cb5b","ownerOf(uint256)":"6352211e","renounceOwnership()":"715018a6","safeTransferFrom(address,address,uint256)":"42842e0e","safeTransferFrom(address,address,uint256,bytes)":"b88d4fde","setApprovalForAll(address,bool)":"a22cb465","supportsInterface(bytes4)":"01ffc9a7","symbol()":"95d89b41","tokenURI(uint256)":"c87b56dd","totalSupply()":"18160ddd","transferFrom(address,address,uint256)":"23b872dd","transferOwnership(address)":"f2fde38b","version()":"54fd4d50"},"id":35}