{"abi":[{"type":"function","name":"UPGRADE_INTERFACE_VERSION","inputs":[],"outputs":[{"name":"","type":"string","internalType":"string"}],"stateMutability":"view"},{"type":"function","name":"activeListingsCount","inputs":[],"outputs":[{"name":"","type":"uint256","internalType":"uint256"}],"stateMutability":"view"},{"type":"function","name":"buyNFT","inputs":[{"name":"listingId","type":"bytes32","internalType":"bytes32"}],"outputs":[],"stateMutability":"payable"},{"type":"function","name":"delistNFT","inputs":[{"name":"listingId","type":"bytes32","internalType":"bytes32"}],"outputs":[],"stateMutability":"nonpayable"},{"type":"function","name":"emergencyWithdraw","inputs":[{"name":"amount","type":"uint256","internalType":"uint256"}],"outputs":[],"stateMutability":"nonpayable"},{"type":"function","name":"feePercentage","inputs":[],"outputs":[{"name":"","type":"uint256","internalType":"uint256"}],"stateMutability":"view"},{"type":"function","name":"feeRecipient","inputs":[],"outputs":[{"name":"","type":"address","internalType":"address"}],"stateMutability":"view"},{"type":"function","name":"getListing","inputs":[{"name":"listingId","type":"bytes32","internalType":"bytes32"}],"outputs":[{"name":"","type":"tuple","internalType":"struct NFTMarketUpgradeable.Listing","components":[{"name":"seller","type":"address","internalType":"address"},{"name":"nftContract","type":"address","internalType":"address"},{"name":"tokenId","type":"uint256","internalType":"uint256"},{"name":"price","type":"uint256","internalType":"uint256"},{"name":"active","type":"bool","internalType":"bool"},{"name":"timestamp","type":"uint256","internalType":"uint256"}]}],"stateMutability":"view"},{"type":"function","name":"getMarketStats","inputs":[],"outputs":[{"name":"_activeListingsCount","type":"uint256","internalType":"uint256"},{"name":"_contractBalance","type":"uint256","internalType":"uint256"},{"name":"_feePercentage","type":"uint256","internalType":"uint256"}],"stateMutability":"view"},{"type":"function","name":"getSignatureHash","inputs":[{"name":"nftContract","type":"address","internalType":"address"},{"name":"tokenId","type":"uint256","internalType":"uint256"},{"name":"price","type":"uint256","internalType":"uint256"},{"name":"nonce","type":"uint256","internalType":"uint256"},{"name":"deadline","type":"uint256","internalType":"uint256"}],"outputs":[{"name":"","type":"bytes32","internalType":"bytes32"}],"stateMutability":"view"},{"type":"function","name":"getUserListings","inputs":[{"name":"user","type":"address","internalType":"address"}],"outputs":[{"name":"","type":"bytes32[]","internalType":"bytes32[]"}],"stateMutability":"view"},{"type":"function","name":"initialize","inputs":[{"name":"_feePercentage","type":"uint256","internalType":"uint256"},{"name":"_feeRecipient","type":"address","internalType":"address"},{"name":"_minPrice","type":"uint256","internalType":"uint256"},{"name":"_maxPrice","type":"uint256","internalType":"uint256"}],"outputs":[],"stateMutability":"nonpayable"},{"type":"function","name":"isSignatureUsed","inputs":[{"name":"signature","type":"bytes","internalType":"bytes"}],"outputs":[{"name":"","type":"bool","internalType":"bool"}],"stateMutability":"view"},{"type":"function","name":"listNFT","inputs":[{"name":"nftContract","type":"address","internalType":"address"},{"name":"tokenId","type":"uint256","internalType":"uint256"},{"name":"price","type":"uint256","internalType":"uint256"}],"outputs":[],"stateMutability":"nonpayable"},{"type":"function","name":"listWithSignature","inputs":[{"name":"nftContract","type":"address","internalType":"address"},{"name":"tokenId","type":"uint256","internalType":"uint256"},{"name":"price","type":"uint256","internalType":"uint256"},{"name":"nonce","type":"uint256","internalType":"uint256"},{"name":"deadline","type":"uint256","internalType":"uint256"},{"name":"signature","type":"bytes","internalType":"bytes"}],"outputs":[],"stateMutability":"nonpayable"},{"type":"function","name":"listings","inputs":[{"name":"","type":"bytes32","internalType":"bytes32"}],"outputs":[{"name":"seller","type":"address","internalType":"address"},{"name":"nftContract","type":"address","internalType":"address"},{"name":"tokenId","type":"uint256","internalType":"uint256"},{"name":"price","type":"uint256","internalType":"uint256"},{"name":"active","type":"bool","internalType":"bool"},{"name":"timestamp","type":"uint256","internalType":"uint256"}],"stateMutability":"view"},{"type":"function","name":"maxPrice","inputs":[],"outputs":[{"name":"","type":"uint256","internalType":"uint256"}],"stateMutability":"view"},{"type":"function","name":"minPrice","inputs":[],"outputs":[{"name":"","type":"uint256","internalType":"uint256"}],"stateMutability":"view"},{"type":"function","name":"onERC721Received","inputs":[{"name":"operator","type":"address","internalType":"address"},{"name":"from","type":"address","internalType":"address"},{"name":"tokenId","type":"uint256","internalType":"uint256"},{"name":"data","type":"bytes","internalType":"bytes"}],"outputs":[{"name":"","type":"bytes4","internalType":"bytes4"}],"stateMutability":"pure"},{"type":"function","name":"owner","inputs":[],"outputs":[{"name":"","type":"address","internalType":"address"}],"stateMutability":"view"},{"type":"function","name":"pause","inputs":[],"outputs":[],"stateMutability":"nonpayable"},{"type":"function","name":"paused","inputs":[],"outputs":[{"name":"","type":"bool","internalType":"bool"}],"stateMutability":"view"},{"type":"function","name":"proxiableUUID","inputs":[],"outputs":[{"name":"","type":"bytes32","internalType":"bytes32"}],"stateMutability":"view"},{"type":"function","name":"renounceOwnership","inputs":[],"outputs":[],"stateMutability":"nonpayable"},{"type":"function","name":"supportsInterface","inputs":[{"name":"interfaceId","type":"bytes4","internalType":"bytes4"}],"outputs":[{"name":"","type":"bool","internalType":"bool"}],"stateMutability":"pure"},{"type":"function","name":"transferOwnership","inputs":[{"name":"newOwner","type":"address","internalType":"address"}],"outputs":[],"stateMutability":"nonpayable"},{"type":"function","name":"unpause","inputs":[],"outputs":[],"stateMutability":"nonpayable"},{"type":"function","name":"updateMarketParams","inputs":[{"name":"_feePercentage","type":"uint256","internalType":"uint256"},{"name":"_feeRecipient","type":"address","internalType":"address"},{"name":"_minPrice","type":"uint256","internalType":"uint256"},{"name":"_maxPrice","type":"uint256","internalType":"uint256"}],"outputs":[],"stateMutability":"nonpayable"},{"type":"function","name":"upgradeToAndCall","inputs":[{"name":"newImplementation","type":"address","internalType":"address"},{"name":"data","type":"bytes","internalType":"bytes"}],"outputs":[],"stateMutability":"payable"},{"type":"function","name":"usedSignatures","inputs":[{"name":"","type":"bytes32","internalType":"bytes32"}],"outputs":[{"name":"","type":"bool","internalType":"bool"}],"stateMutability":"view"},{"type":"function","name":"userListings","inputs":[{"name":"","type":"address","internalType":"address"},{"name":"","type":"uint256","internalType":"uint256"}],"outputs":[{"name":"","type":"bytes32","internalType":"bytes32"}],"stateMutability":"view"},{"type":"function","name":"version","inputs":[],"outputs":[{"name":"","type":"string","internalType":"string"}],"stateMutability":"pure"},{"type":"event","name":"Initialized","inputs":[{"name":"version","type":"uint64","indexed":false,"internalType":"uint64"}],"anonymous":false},{"type":"event","name":"MarketParamsUpdated","inputs":[{"name":"feePercentage","type":"uint256","indexed":false,"internalType":"uint256"},{"name":"feeRecipient","type":"address","indexed":false,"internalType":"address"},{"name":"minPrice","type":"uint256","indexed":false,"internalType":"uint256"},{"name":"maxPrice","type":"uint256","indexed":false,"internalType":"uint256"}],"anonymous":false},{"type":"event","name":"NFTDelisted","inputs":[{"name":"listingId","type":"bytes32","indexed":true,"internalType":"bytes32"},{"name":"seller","type":"address","indexed":true,"internalType":"address"},{"name":"nftContract","type":"address","indexed":true,"internalType":"address"},{"name":"tokenId","type":"uint256","indexed":false,"internalType":"uint256"},{"name":"timestamp","type":"uint256","indexed":false,"internalType":"uint256"}],"anonymous":false},{"type":"event","name":"NFTListed","inputs":[{"name":"listingId","type":"bytes32","indexed":true,"internalType":"bytes32"},{"name":"seller","type":"address","indexed":true,"internalType":"address"},{"name":"nftContract","type":"address","indexed":true,"internalType":"address"},{"name":"tokenId","type":"uint256","indexed":false,"internalType":"uint256"},{"name":"price","type":"uint256","indexed":false,"internalType":"uint256"},{"name":"timestamp","type":"uint256","indexed":false,"internalType":"uint256"}],"anonymous":false},{"type":"event","name":"NFTListedWithSignature","inputs":[{"name":"listingId","type":"bytes32","indexed":true,"internalType":"bytes32"},{"name":"seller","type":"address","indexed":true,"internalType":"address"},{"name":"nftContract","type":"address","indexed":true,"internalType":"address"},{"name":"tokenId","type":"uint256","indexed":false,"internalType":"uint256"},{"name":"price","type":"uint256","indexed":false,"internalType":"uint256"},{"name":"timestamp","type":"uint256","indexed":false,"internalType":"uint256"},{"name":"signature","type":"bytes","indexed":false,"internalType":"bytes"}],"anonymous":false},{"type":"event","name":"NFTPurchased","inputs":[{"name":"listingId","type":"bytes32","indexed":true,"internalType":"bytes32"},{"name":"buyer","type":"address","indexed":true,"internalType":"address"},{"name":"seller","type":"address","indexed":true,"internalType":"address"},{"name":"nftContract","type":"address","indexed":false,"internalType":"address"},{"name":"tokenId","type":"uint256","indexed":false,"internalType":"uint256"},{"name":"price","type":"uint256","indexed":false,"internalType":"uint256"},{"name":"fee","type":"uint256","indexed":false,"internalType":"uint256"},{"name":"timestamp","type":"uint256","indexed":false,"internalType":"uint256"}],"anonymous":false},{"type":"event","name":"OwnershipTransferred","inputs":[{"name":"previousOwner","type":"address","indexed":true,"internalType":"address"},{"name":"newOwner","type":"address","indexed":true,"internalType":"address"}],"anonymous":false},{"type":"event","name":"Paused","inputs":[{"name":"account","type":"address","indexed":false,"internalType":"address"}],"anonymous":false},{"type":"event","name":"Unpaused","inputs":[{"name":"account","type":"address","indexed":false,"internalType":"address"}],"anonymous":false},{"type":"event","name":"Upgraded","inputs":[{"name":"implementation","type":"address","indexed":true,"internalType":"address"}],"anonymous":false},{"type":"error","name":"AddressEmptyCode","inputs":[{"name":"target","type":"address","internalType":"address"}]},{"type":"error","name":"ECDSAInvalidSignature","inputs":[]},{"type":"error","name":"ECDSAInvalidSignatureLength","inputs":[{"name":"length","type":"uint256","internalType":"uint256"}]},{"type":"error","name":"ECDSAInvalidSignatureS","inputs":[{"name":"s","type":"bytes32","internalType":"bytes32"}]},{"type":"error","name":"ERC1967InvalidImplementation","inputs":[{"name":"implementation","type":"address","internalType":"address"}]},{"type":"error","name":"ERC1967NonPayable","inputs":[]},{"type":"error","name":"EnforcedPause","inputs":[]},{"type":"error","name":"ExpectedPause","inputs":[]},{"type":"error","name":"FailedCall","inputs":[]},{"type":"error","name":"InsufficientPayment","inputs":[{"name":"required","type":"uint256","internalType":"uint256"},{"name":"provided","type":"uint256","internalType":"uint256"}]},{"type":"error","name":"InvalidInitialization","inputs":[]},{"type":"error","name":"InvalidSignature","inputs":[]},{"type":"error","name":"ListingNotActive","inputs":[{"name":"listingId","type":"bytes32","internalType":"bytes32"}]},{"type":"error","name":"ListingNotFound","inputs":[{"name":"listingId","type":"bytes32","internalType":"bytes32"}]},{"type":"error","name":"NFTTransferFailed","inputs":[]},{"type":"error","name":"NotInitializing","inputs":[]},{"type":"error","name":"NotLister","inputs":[{"name":"listingId","type":"bytes32","internalType":"bytes32"}]},{"type":"error","name":"NotNFTOwner","inputs":[{"name":"nftContract","type":"address","internalType":"address"},{"name":"tokenId","type":"uint256","internalType":"uint256"}]},{"type":"error","name":"OwnableInvalidOwner","inputs":[{"name":"owner","type":"address","internalType":"address"}]},{"type":"error","name":"OwnableUnauthorizedAccount","inputs":[{"name":"account","type":"address","internalType":"address"}]},{"type":"error","name":"PriceOutOfRange","inputs":[{"name":"price","type":"uint256","internalType":"uint256"},{"name":"minPrice","type":"uint256","internalType":"uint256"},{"name":"maxPrice","type":"uint256","internalType":"uint256"}]},{"type":"error","name":"ReentrancyGuardReentrantCall","inputs":[]},{"type":"error","name":"SignatureAlreadyUsed","inputs":[{"name":"signatureHash","type":"bytes32","internalType":"bytes32"}]},{"type":"error","name":"UUPSUnauthorizedCallContext","inputs":[]},{"type":"error","name":"UUPSUnsupportedProxiableUUID","inputs":[{"name":"slot","type":"bytes32","internalType":"bytes32"}]}],"bytecode":{"object":"0x60a06040523073ffffffffffffffffffffffffffffffffffffffff1660809073ffffffffffffffffffffffffffffffffffffffff168152503480156041575f80fd5b50608051614ec06100685f395f818161283a0152818161288f0152612c070152614ec05ff3fe6080604052600436106101e2575f3560e01c8063715018a611610101578063ae4a452511610094578063eb18a9d811610063578063eb18a9d81461069d578063f2fde38b146106d9578063f978fd6114610701578063ff4cd5b91461073d576101e2565b8063ae4a4525146105e0578063c18b8db414610608578063e38d6b5c14610649578063e45be8eb14610673576101e2565b8063a001ecdd116100d0578063a001ecdd14610528578063a0219f8d14610552578063ad05f1b41461058e578063ad3cb1cc146105b6576101e2565b8063715018a6146104965780638456cb59146104ac57806386cfa7d3146104c25780638da5cb5b146104fe576101e2565b806346904840116101795780635312ea8e116101485780635312ea8e146103f257806354fd4d501461041a5780635c975abb146104445780636da7cd741461046e576101e2565b8063469048401461035a5780634f1ef2861461038457806350fe474a146103a057806352d1902d146103c8576101e2565b806315398196116101b557806315398196146102c457806317118469146102ec578063175c0d16146103085780633f4ba83a14610344576101e2565b806301ffc9a7146101e6578063045fb3e9146102225780631150f0f31461024c578063150b7a0214610288575b5f80fd5b3480156101f1575f80fd5b5061020c600480360381019061020791906136e1565b610769565b6040516102199190613726565b60405180910390f35b34801561022d575f80fd5b5061023661079a565b6040516102439190613757565b60405180910390f35b348015610257575f80fd5b50610272600480360381019061026d91906137d1565b6107a0565b60405161027f9190613726565b60405180910390f35b348015610293575f80fd5b506102ae60048036038101906102a991906138a0565b6107e3565b6040516102bb9190613933565b60405180910390f35b3480156102cf575f80fd5b506102ea60048036038101906102e5919061394c565b6107f7565b005b610306600480360381019061030191906139e3565b6109cd565b005b348015610313575f80fd5b5061032e600480360381019061032991906139e3565b610eba565b60405161033b9190613ab4565b60405180910390f35b34801561034f575f80fd5b50610358610fc6565b005b348015610365575f80fd5b5061036e610fd8565b60405161037b9190613adc565b60405180910390f35b61039e60048036038101906103999190613c2d565b610ffd565b005b3480156103ab575f80fd5b506103c660048036038101906103c19190613c87565b61101c565b005b3480156103d3575f80fd5b506103dc6116bd565b6040516103e99190613d40565b60405180910390f35b3480156103fd575f80fd5b5061041860048036038101906104139190613d59565b6116ee565b005b348015610425575f80fd5b5061042e6117ec565b60405161043b9190613de4565b60405180910390f35b34801561044f575f80fd5b50610458611829565b6040516104659190613726565b60405180910390f35b348015610479575f80fd5b50610494600480360381019061048f91906139e3565b61184b565b005b3480156104a1575f80fd5b506104aa611ab6565b005b3480156104b7575f80fd5b506104c0611ac9565b005b3480156104cd575f80fd5b506104e860048036038101906104e39190613e04565b611adb565b6040516104f59190613d40565b60405180910390f35b348015610509575f80fd5b50610512611b06565b60405161051f9190613adc565b60405180910390f35b348015610533575f80fd5b5061053c611b3b565b6040516105499190613757565b60405180910390f35b34801561055d575f80fd5b5061057860048036038101906105739190613e42565b611b40565b6040516105859190613d40565b60405180910390f35b348015610599575f80fd5b506105b460048036038101906105af9190613eb9565b611b8a565b005b3480156105c1575f80fd5b506105ca612161565b6040516105d79190613de4565b60405180910390f35b3480156105eb575f80fd5b506106066004803603810190610601919061394c565b61219a565b005b348015610613575f80fd5b5061062e600480360381019061062991906139e3565b6124c1565b60405161064096959493929190613f09565b60405180910390f35b348015610654575f80fd5b5061065d612543565b60405161066a9190613757565b60405180910390f35b34801561067e575f80fd5b50610687612549565b6040516106949190613757565b60405180910390f35b3480156106a8575f80fd5b506106c360048036038101906106be9190613f68565b61254f565b6040516106d0919061404a565b60405180910390f35b3480156106e4575f80fd5b506106ff60048036038101906106fa9190613f68565b6125e2565b005b34801561070c575f80fd5b50610727600480360381019061072291906139e3565b612666565b6040516107349190613726565b60405180910390f35b348015610748575f80fd5b50610751612683565b6040516107609392919061406a565b60405180910390f35b5f6301ffc9a760e01b827bffffffffffffffffffffffffffffffffffffffffffffffffffffffff1916149050919050565b60065481565b5f8083836040516107b29291906140cd565b6040518091039020905060075f8281526020019081526020015f205f9054906101000a900460ff1691505092915050565b5f63150b7a0260e01b905095945050505050565b6107ff612697565b6103e8841115610844576040517f08c379a000000000000000000000000000000000000000000000000000000000815260040161083b9061412f565b60405180910390fd5b5f73ffffffffffffffffffffffffffffffffffffffff168373ffffffffffffffffffffffffffffffffffffffff16036108b2576040517f08c379a00000000000000000000000000000000000000000000000000000000081526004016108a990614197565b60405180910390fd5b5f82116108f4576040517f08c379a00000000000000000000000000000000000000000000000000000000081526004016108eb906141ff565b60405180910390fd5b818111610936576040517f08c379a000000000000000000000000000000000000000000000000000000000815260040161092d9061428d565b60405180910390fd5b835f819055508260015f6101000a81548173ffffffffffffffffffffffffffffffffffffffff021916908373ffffffffffffffffffffffffffffffffffffffff16021790555081600281905550806003819055507fc2a20124247acd3485b7368880895c4525db967b8d954480d71808ad52f8cb90848484846040516109bf94939291906142ab565b60405180910390a150505050565b6109d561271e565b6109dd61275f565b5f60045f8381526020019081526020015f209050806004015f9054906101000a900460ff16610a4357816040517ff6a0b3c0000000000000000000000000000000000000000000000000000000008152600401610a3a9190613d40565b60405180910390fd5b8060030154341015610a92578060030154346040517fb99e2ab7000000000000000000000000000000000000000000000000000000008152600401610a899291906142ee565b60405180910390fd5b5f6127105f548360030154610aa79190614342565b610ab191906143b0565b90505f818360030154610ac491906143e0565b90505f836004015f6101000a81548160ff02191690831515021790555060065f815480929190610af390614413565b91905055505f836001015f9054906101000a900473ffffffffffffffffffffffffffffffffffffffff1690508073ffffffffffffffffffffffffffffffffffffffff166342842e0e303387600201546040518463ffffffff1660e01b8152600401610b609392919061443a565b5f604051808303815f87803b158015610b77575f80fd5b505af1158015610b89573d5f803e3d5ffd5b505050505f831115610c60575f60015f9054906101000a900473ffffffffffffffffffffffffffffffffffffffff1673ffffffffffffffffffffffffffffffffffffffff1684604051610bdb90614492565b5f6040518083038185875af1925050503d805f8114610c15576040519150601f19603f3d011682016040523d82523d5f602084013e610c1a565b606091505b5050905080610c5e576040517f08c379a0000000000000000000000000000000000000000000000000000000008152600401610c55906144f0565b60405180910390fd5b505b5f845f015f9054906101000a900473ffffffffffffffffffffffffffffffffffffffff1673ffffffffffffffffffffffffffffffffffffffff1683604051610ca790614492565b5f6040518083038185875af1925050503d805f8114610ce1576040519150601f19603f3d011682016040523d82523d5f602084013e610ce6565b606091505b5050905080610d2a576040517f08c379a0000000000000000000000000000000000000000000000000000000008152600401610d2190614558565b60405180910390fd5b8460030154341115610def575f3373ffffffffffffffffffffffffffffffffffffffff16866003015434610d5e91906143e0565b604051610d6a90614492565b5f6040518083038185875af1925050503d805f8114610da4576040519150601f19603f3d011682016040523d82523d5f602084013e610da9565b606091505b5050905080610ded576040517f08c379a0000000000000000000000000000000000000000000000000000000008152600401610de4906145c0565b60405180910390fd5b505b845f015f9054906101000a900473ffffffffffffffffffffffffffffffffffffffff1673ffffffffffffffffffffffffffffffffffffffff163373ffffffffffffffffffffffffffffffffffffffff16877f0371852999d5a264e85635bbf983fdf9ec399a9d79c11943b155db715978e5af886001015f9054906101000a900473ffffffffffffffffffffffffffffffffffffffff1689600201548a600301548a42604051610ea29594939291906145de565b60405180910390a45050505050610eb76127b3565b50565b610ec261361d565b60045f8381526020019081526020015f206040518060c00160405290815f82015f9054906101000a900473ffffffffffffffffffffffffffffffffffffffff1673ffffffffffffffffffffffffffffffffffffffff1673ffffffffffffffffffffffffffffffffffffffff168152602001600182015f9054906101000a900473ffffffffffffffffffffffffffffffffffffffff1673ffffffffffffffffffffffffffffffffffffffff1673ffffffffffffffffffffffffffffffffffffffff1681526020016002820154815260200160038201548152602001600482015f9054906101000a900460ff161515151581526020016005820154815250509050919050565b610fce612697565b610fd66127ca565b565b60015f9054906101000a900473ffffffffffffffffffffffffffffffffffffffff1681565b611005612838565b61100e8261291e565b6110188282612929565b5050565b61102461271e565b61102c61275f565b600254851015801561104057506003548511155b61107f576040517f08c379a000000000000000000000000000000000000000000000000000000000815260040161107690614679565b60405180910390fd5b824211156110c2576040517f08c379a00000000000000000000000000000000000000000000000000000000081526004016110b9906146e1565b60405180910390fd5b5f6110d288888888888888612a47565b90505f8890508173ffffffffffffffffffffffffffffffffffffffff168173ffffffffffffffffffffffffffffffffffffffff16636352211e8a6040518263ffffffff1660e01b81526004016111289190613757565b602060405180830381865afa158015611143573d5f803e3d5ffd5b505050506040513d601f19601f820116820180604052508101906111679190614713565b73ffffffffffffffffffffffffffffffffffffffff16146111bd576040517f08c379a00000000000000000000000000000000000000000000000000000000081526004016111b490614788565b60405180910390fd5b8073ffffffffffffffffffffffffffffffffffffffff1663e985e9c583306040518363ffffffff1660e01b81526004016111f89291906147a6565b602060405180830381865afa158015611213573d5f803e3d5ffd5b505050506040513d601f19601f8201168201806040525081019061123791906147f7565b806112e457503073ffffffffffffffffffffffffffffffffffffffff168173ffffffffffffffffffffffffffffffffffffffff1663081812fc8a6040518263ffffffff1660e01b815260040161128d9190613757565b602060405180830381865afa1580156112a8573d5f803e3d5ffd5b505050506040513d601f19601f820116820180604052508101906112cc9190614713565b73ffffffffffffffffffffffffffffffffffffffff16145b611323576040517f08c379a000000000000000000000000000000000000000000000000000000000815260040161131a9061486c565b60405180910390fd5b5f828a8a8a428b60405160200161133f969594939291906148ef565b60405160208183030381529060405280519060200120905060045f8281526020019081526020015f206004015f9054906101000a900460ff16156113b8576040517f08c379a00000000000000000000000000000000000000000000000000000000081526004016113af906149a8565b60405180910390fd5b6040518060c001604052808473ffffffffffffffffffffffffffffffffffffffff1681526020018b73ffffffffffffffffffffffffffffffffffffffff1681526020018a81526020018981526020016001151581526020014281525060045f8381526020019081526020015f205f820151815f015f6101000a81548173ffffffffffffffffffffffffffffffffffffffff021916908373ffffffffffffffffffffffffffffffffffffffff1602179055506020820151816001015f6101000a81548173ffffffffffffffffffffffffffffffffffffffff021916908373ffffffffffffffffffffffffffffffffffffffff16021790555060408201518160020155606082015181600301556080820151816004015f6101000a81548160ff02191690831515021790555060a0820151816005015590505060055f8473ffffffffffffffffffffffffffffffffffffffff1673ffffffffffffffffffffffffffffffffffffffff1681526020019081526020015f2081908060018154018082558091505060019003905f5260205f20015f909190919091505560065f815480929190611562906149c6565b91905055508173ffffffffffffffffffffffffffffffffffffffff166342842e0e84308c6040518463ffffffff1660e01b81526004016115a49392919061443a565b5f604051808303815f87803b1580156115bb575f80fd5b505af11580156115cd573d5f803e3d5ffd5b505050508973ffffffffffffffffffffffffffffffffffffffff168373ffffffffffffffffffffffffffffffffffffffff16827fc545701dee8754ebd2a3d3c1432200743463c141b5ed90d8c509bcd3bff476278c8c426040516116339392919061406a565b60405180910390a48973ffffffffffffffffffffffffffffffffffffffff168373ffffffffffffffffffffffffffffffffffffffff16827fc1bef596089ed3ad70402dba329d383d2d3eaa19759d7a0f2aaa1040a4eafa238c8c428b8b6040516116a1959493929190614a49565b60405180910390a45050506116b46127b3565b50505050505050565b5f6116c6612c05565b7f360894a13ba1a3210667c828492db98dca3e2076cc3735a920a3ca505d382bbc5f1b905090565b6116f6612697565b80471015611739576040517f08c379a000000000000000000000000000000000000000000000000000000000815260040161173090614adf565b60405180910390fd5b5f611742611b06565b73ffffffffffffffffffffffffffffffffffffffff168260405161176590614492565b5f6040518083038185875af1925050503d805f811461179f576040519150601f19603f3d011682016040523d82523d5f602084013e6117a4565b606091505b50509050806117e8576040517f08c379a00000000000000000000000000000000000000000000000000000000081526004016117df90614b47565b60405180910390fd5b5050565b60606040518060400160405280600581526020017f322e302e30000000000000000000000000000000000000000000000000000000815250905090565b5f80611833612c8c565b9050805f015f9054906101000a900460ff1691505090565b61185361271e565b61185b61275f565b5f60045f8381526020019081526020015f209050806004015f9054906101000a900460ff166118c157816040517ff6a0b3c00000000000000000000000000000000000000000000000000000000081526004016118b89190613d40565b60405180910390fd5b3373ffffffffffffffffffffffffffffffffffffffff16815f015f9054906101000a900473ffffffffffffffffffffffffffffffffffffffff1673ffffffffffffffffffffffffffffffffffffffff161461195357816040517f8f05f87000000000000000000000000000000000000000000000000000000000815260040161194a9190613d40565b60405180910390fd5b5f816004015f6101000a81548160ff02191690831515021790555060065f81548092919061198090614413565b91905055505f816001015f9054906101000a900473ffffffffffffffffffffffffffffffffffffffff1690508073ffffffffffffffffffffffffffffffffffffffff166342842e0e303385600201546040518463ffffffff1660e01b81526004016119ed9392919061443a565b5f604051808303815f87803b158015611a04575f80fd5b505af1158015611a16573d5f803e3d5ffd5b50505050816001015f9054906101000a900473ffffffffffffffffffffffffffffffffffffffff1673ffffffffffffffffffffffffffffffffffffffff163373ffffffffffffffffffffffffffffffffffffffff16847fa50fcfa9a2af1282fde9daef074e37fbd0e14c4455ec9def3f97ede61f0ead17856002015442604051611aa19291906142ee565b60405180910390a45050611ab36127b3565b50565b611abe612697565b611ac75f612cb3565b565b611ad1612697565b611ad9612d84565b565b6005602052815f5260405f208181548110611af4575f80fd5b905f5260205f20015f91509150505481565b5f80611b10612df3565b9050805f015f9054906101000a900473ffffffffffffffffffffffffffffffffffffffff1691505090565b5f5481565b5f80868686868630604051602001611b5d96959493929190614b65565b604051602081830303815290604052805190602001209050611b7e81612e1a565b91505095945050505050565b611b9261271e565b611b9a61275f565b6002548110158015611bae57506003548111155b611bed576040517f08c379a0000000000000000000000000000000000000000000000000000000008152600401611be490614679565b60405180910390fd5b5f8390503373ffffffffffffffffffffffffffffffffffffffff168173ffffffffffffffffffffffffffffffffffffffff16636352211e856040518263ffffffff1660e01b8152600401611c419190613757565b602060405180830381865afa158015611c5c573d5f803e3d5ffd5b505050506040513d601f19601f82011682018060405250810190611c809190614713565b73ffffffffffffffffffffffffffffffffffffffff1614611cd6576040517f08c379a0000000000000000000000000000000000000000000000000000000008152600401611ccd90614c1e565b60405180910390fd5b8073ffffffffffffffffffffffffffffffffffffffff1663e985e9c533306040518363ffffffff1660e01b8152600401611d119291906147a6565b602060405180830381865afa158015611d2c573d5f803e3d5ffd5b505050506040513d601f19601f82011682018060405250810190611d5091906147f7565b80611dfd57503073ffffffffffffffffffffffffffffffffffffffff168173ffffffffffffffffffffffffffffffffffffffff1663081812fc856040518263ffffffff1660e01b8152600401611da69190613757565b602060405180830381865afa158015611dc1573d5f803e3d5ffd5b505050506040513d601f19601f82011682018060405250810190611de59190614713565b73ffffffffffffffffffffffffffffffffffffffff16145b611e3c576040517f08c379a0000000000000000000000000000000000000000000000000000000008152600401611e339061486c565b60405180910390fd5b5f3385858542604051602001611e56959493929190614c3c565b60405160208183030381529060405280519060200120905060045f8281526020019081526020015f206004015f9054906101000a900460ff1615611ecf576040517f08c379a0000000000000000000000000000000000000000000000000000000008152600401611ec6906149a8565b60405180910390fd5b6040518060c001604052803373ffffffffffffffffffffffffffffffffffffffff1681526020018673ffffffffffffffffffffffffffffffffffffffff1681526020018581526020018481526020016001151581526020014281525060045f8381526020019081526020015f205f820151815f015f6101000a81548173ffffffffffffffffffffffffffffffffffffffff021916908373ffffffffffffffffffffffffffffffffffffffff1602179055506020820151816001015f6101000a81548173ffffffffffffffffffffffffffffffffffffffff021916908373ffffffffffffffffffffffffffffffffffffffff16021790555060408201518160020155606082015181600301556080820151816004015f6101000a81548160ff02191690831515021790555060a0820151816005015590505060055f3373ffffffffffffffffffffffffffffffffffffffff1673ffffffffffffffffffffffffffffffffffffffff1681526020019081526020015f2081908060018154018082558091505060019003905f5260205f20015f909190919091505560065f815480929190612079906149c6565b91905055508173ffffffffffffffffffffffffffffffffffffffff166342842e0e3330876040518463ffffffff1660e01b81526004016120bb9392919061443a565b5f604051808303815f87803b1580156120d2575f80fd5b505af11580156120e4573d5f803e3d5ffd5b505050508473ffffffffffffffffffffffffffffffffffffffff163373ffffffffffffffffffffffffffffffffffffffff16827fc545701dee8754ebd2a3d3c1432200743463c141b5ed90d8c509bcd3bff4762787874260405161214a9392919061406a565b60405180910390a4505061215c6127b3565b505050565b6040518060400160405280600581526020017f352e302e3000000000000000000000000000000000000000000000000000000081525081565b5f6121a3612e4d565b90505f815f0160089054906101000a900460ff161590505f825f015f9054906101000a900467ffffffffffffffff1690505f808267ffffffffffffffff161480156121eb5750825b90505f60018367ffffffffffffffff1614801561221e57505f3073ffffffffffffffffffffffffffffffffffffffff163b145b90508115801561222c575080155b15612263576040517ff92ee8a900000000000000000000000000000000000000000000000000000000815260040160405180910390fd5b6001855f015f6101000a81548167ffffffffffffffff021916908367ffffffffffffffff16021790555083156122b0576001855f0160086101000a81548160ff0219169083151502179055505b6122b933612e60565b6122c1612e74565b6122c9612e7e565b6122d1612e90565b6103e8891115612316576040517f08c379a000000000000000000000000000000000000000000000000000000000815260040161230d9061412f565b60405180910390fd5b5f73ffffffffffffffffffffffffffffffffffffffff168873ffffffffffffffffffffffffffffffffffffffff1603612384576040517f08c379a000000000000000000000000000000000000000000000000000000000815260040161237b90614197565b60405180910390fd5b5f87116123c6576040517f08c379a00000000000000000000000000000000000000000000000000000000081526004016123bd906141ff565b60405180910390fd5b868611612408576040517f08c379a00000000000000000000000000000000000000000000000000000000081526004016123ff9061428d565b60405180910390fd5b885f819055508760015f6101000a81548173ffffffffffffffffffffffffffffffffffffffff021916908373ffffffffffffffffffffffffffffffffffffffff160217905550866002819055508560038190555083156124b6575f855f0160086101000a81548160ff0219169083151502179055507fc7f505b2f371ae2175ee4913f4499e1f2633a7b5936321eed1cdaeb6115181d260016040516124ad9190614cef565b60405180910390a15b505050505050505050565b6004602052805f5260405f205f91509050805f015f9054906101000a900473ffffffffffffffffffffffffffffffffffffffff1690806001015f9054906101000a900473ffffffffffffffffffffffffffffffffffffffff1690806002015490806003015490806004015f9054906101000a900460ff16908060050154905086565b60035481565b60025481565b606060055f8373ffffffffffffffffffffffffffffffffffffffff1673ffffffffffffffffffffffffffffffffffffffff1681526020019081526020015f208054806020026020016040519081016040528092919081815260200182805480156125d657602002820191905f5260205f20905b8154815260200190600101908083116125c2575b50505050509050919050565b6125ea612697565b5f73ffffffffffffffffffffffffffffffffffffffff168173ffffffffffffffffffffffffffffffffffffffff160361265a575f6040517f1e4fbdf70000000000000000000000000000000000000000000000000000000081526004016126519190613adc565b60405180910390fd5b61266381612cb3565b50565b6007602052805f5260405f205f915054906101000a900460ff1681565b5f805f600654475f54925092509250909192565b61269f612e9a565b73ffffffffffffffffffffffffffffffffffffffff166126bd611b06565b73ffffffffffffffffffffffffffffffffffffffff161461271c576126e0612e9a565b6040517f118cdaa70000000000000000000000000000000000000000000000000000000081526004016127139190613adc565b60405180910390fd5b565b612726611829565b1561275d576040517fd93c066500000000000000000000000000000000000000000000000000000000815260040160405180910390fd5b565b5f612768612ea1565b90506002815f0154036127a7576040517f3ee5aeb500000000000000000000000000000000000000000000000000000000815260040160405180910390fd5b6002815f018190555050565b5f6127bc612ea1565b90506001815f018190555050565b6127d2612ec8565b5f6127db612c8c565b90505f815f015f6101000a81548160ff0219169083151502179055507f5db9ee0a495bf2e6ff9c91a7834c1ba4fdd244a5e8aa4e537bd38aeae4b073aa612820612e9a565b60405161282d9190613adc565b60405180910390a150565b7f000000000000000000000000000000000000000000000000000000000000000073ffffffffffffffffffffffffffffffffffffffff163073ffffffffffffffffffffffffffffffffffffffff1614806128e557507f000000000000000000000000000000000000000000000000000000000000000073ffffffffffffffffffffffffffffffffffffffff166128cc612f08565b73ffffffffffffffffffffffffffffffffffffffff1614155b1561291c576040517fe07c8dba00000000000000000000000000000000000000000000000000000000815260040160405180910390fd5b565b612926612697565b50565b8173ffffffffffffffffffffffffffffffffffffffff166352d1902d6040518163ffffffff1660e01b8152600401602060405180830381865afa92505050801561299157506040513d601f19601f8201168201806040525081019061298e9190614d1c565b60015b6129d257816040517f4c9c8ce30000000000000000000000000000000000000000000000000000000081526004016129c99190613adc565b60405180910390fd5b7f360894a13ba1a3210667c828492db98dca3e2076cc3735a920a3ca505d382bbc5f1b8114612a3857806040517faa1d49a4000000000000000000000000000000000000000000000000000000008152600401612a2f9190613d40565b60405180910390fd5b612a428383612f5b565b505050565b5f80888888888830604051602001612a6496959493929190614b65565b6040516020818303038152906040528051906020012090505f612a8682612e1a565b90505f612adf86868080601f0160208091040260200160405190810160405280939291908181526020018383808284375f81840152601f19601f8201169050808301925050505050505083612fcd90919063ffffffff16565b90505f8686604051612af29291906140cd565b6040518091039020905060075f8281526020019081526020015f205f9054906101000a900460ff1615612b5c57806040517fc19933de000000000000000000000000000000000000000000000000000000008152600401612b539190613d40565b60405180910390fd5b600160075f8381526020019081526020015f205f6101000a81548160ff0219169083151502179055505f73ffffffffffffffffffffffffffffffffffffffff168273ffffffffffffffffffffffffffffffffffffffff1603612bf3576040517f08c379a0000000000000000000000000000000000000000000000000000000008152600401612bea90614d91565b60405180910390fd5b81945050505050979650505050505050565b7f000000000000000000000000000000000000000000000000000000000000000073ffffffffffffffffffffffffffffffffffffffff163073ffffffffffffffffffffffffffffffffffffffff1614612c8a576040517fe07c8dba00000000000000000000000000000000000000000000000000000000815260040160405180910390fd5b565b5f7fcd5ed15c6e187e77e9aee88184c21f4f2182ab5827cb3b7e07fbedcd63f03300905090565b5f612cbc612df3565b90505f815f015f9054906101000a900473ffffffffffffffffffffffffffffffffffffffff16905082825f015f6101000a81548173ffffffffffffffffffffffffffffffffffffffff021916908373ffffffffffffffffffffffffffffffffffffffff1602179055508273ffffffffffffffffffffffffffffffffffffffff168173ffffffffffffffffffffffffffffffffffffffff167f8be0079c531659141344cd1fd0a4f28419497f9722a3daafe3b4186f6b6457e060405160405180910390a3505050565b612d8c61271e565b5f612d95612c8c565b90506001815f015f6101000a81548160ff0219169083151502179055507f62e78cea01bee320cd4e420270b5ea74000d11b0c9f74754ebdbfc544b05a258612ddb612e9a565b604051612de89190613adc565b60405180910390a150565b5f7f9016d09d72d40fdae2fd8ceac6b6234c7706214fd39c1cd1e609a0528c199300905090565b5f7f19457468657265756d205369676e6564204d6573736167653a0a3332000000005f5281601c52603c5f209050919050565b5f80612e57612ff7565b90508091505090565b612e68613020565b612e7181613060565b50565b612e7c613020565b565b612e86613020565b612e8e6130e4565b565b612e98613020565b565b5f33905090565b5f7f9b779b17422d0df92223018b32b4d1fa46e071723d6817e2486d003becc55f00905090565b612ed0611829565b612f06576040517f8dfc202b00000000000000000000000000000000000000000000000000000000815260040160405180910390fd5b565b5f612f347f360894a13ba1a3210667c828492db98dca3e2076cc3735a920a3ca505d382bbc5f1b613103565b5f015f9054906101000a900473ffffffffffffffffffffffffffffffffffffffff16905090565b612f648261310c565b8173ffffffffffffffffffffffffffffffffffffffff167fbc7cd75a20ee27fd9adebab32041f755214dbc6bffa90cc0225b39da2e5c2d3b60405160405180910390a25f81511115612fc057612fba82826131d5565b50612fc9565b612fc8613255565b5b5050565b5f805f80612fdb8686613291565b925092509250612feb82826132e6565b82935050505092915050565b5f7ff0c57e16840df040f15088dc2f81fe391c3923bec73e23a9662efc9c229c6a005f1b905090565b613028613448565b61305e576040517fd7e6bcf800000000000000000000000000000000000000000000000000000000815260040160405180910390fd5b565b613068613020565b5f73ffffffffffffffffffffffffffffffffffffffff168173ffffffffffffffffffffffffffffffffffffffff16036130d8575f6040517f1e4fbdf70000000000000000000000000000000000000000000000000000000081526004016130cf9190613adc565b60405180910390fd5b6130e181612cb3565b50565b6130ec613020565b5f6130f5612ea1565b90506001815f018190555050565b5f819050919050565b5f8173ffffffffffffffffffffffffffffffffffffffff163b0361316757806040517f4c9c8ce300000000000000000000000000000000000000000000000000000000815260040161315e9190613adc565b60405180910390fd5b806131937f360894a13ba1a3210667c828492db98dca3e2076cc3735a920a3ca505d382bbc5f1b613103565b5f015f6101000a81548173ffffffffffffffffffffffffffffffffffffffff021916908373ffffffffffffffffffffffffffffffffffffffff16021790555050565b60605f808473ffffffffffffffffffffffffffffffffffffffff16846040516131fe9190614de9565b5f60405180830381855af49150503d805f8114613236576040519150601f19603f3d011682016040523d82523d5f602084013e61323b565b606091505b509150915061324b858383613466565b9250505092915050565b5f34111561328f576040517fb398979f00000000000000000000000000000000000000000000000000000000815260040160405180910390fd5b565b5f805f60418451036132d1575f805f602087015192506040870151915060608701515f1a90506132c3888285856134f3565b9550955095505050506132df565b5f600285515f1b9250925092505b9250925092565b5f60038111156132f9576132f8614dff565b5b82600381111561330c5761330b614dff565b5b0315613444576001600381111561332657613325614dff565b5b82600381111561333957613338614dff565b5b03613370576040517ff645eedf00000000000000000000000000000000000000000000000000000000815260040160405180910390fd5b6002600381111561338457613383614dff565b5b82600381111561339757613396614dff565b5b036133db57805f1c6040517ffce698f70000000000000000000000000000000000000000000000000000000081526004016133d29190613757565b60405180910390fd5b6003808111156133ee576133ed614dff565b5b82600381111561340157613400614dff565b5b0361344357806040517fd78bce0c00000000000000000000000000000000000000000000000000000000815260040161343a9190613d40565b60405180910390fd5b5b5050565b5f613451612e4d565b5f0160089054906101000a900460ff16905090565b60608261347b57613476826135da565b6134eb565b5f82511480156134a157505f8473ffffffffffffffffffffffffffffffffffffffff163b145b156134e357836040517f9996b3150000000000000000000000000000000000000000000000000000000081526004016134da9190613adc565b60405180910390fd5b8190506134ec565b5b9392505050565b5f805f7f7fffffffffffffffffffffffffffffff5d576e7357a4501ddfe92f46681b20a0845f1c111561352f575f6003859250925092506135d0565b5f6001888888886040515f81526020016040526040516135529493929190614e47565b6020604051602081039080840390855afa158015613572573d5f803e3d5ffd5b5050506020604051035190505f73ffffffffffffffffffffffffffffffffffffffff168173ffffffffffffffffffffffffffffffffffffffff16036135c3575f60015f801b935093509350506135d0565b805f805f1b935093509350505b9450945094915050565b5f815111156135eb57805160208201fd5b6040517fd6bda27500000000000000000000000000000000000000000000000000000000815260040160405180910390fd5b6040518060c001604052805f73ffffffffffffffffffffffffffffffffffffffff1681526020015f73ffffffffffffffffffffffffffffffffffffffff1681526020015f81526020015f81526020015f151581526020015f81525090565b5f604051905090565b5f80fd5b5f80fd5b5f7fffffffff0000000000000000000000000000000000000000000000000000000082169050919050565b6136c08161368c565b81146136ca575f80fd5b50565b5f813590506136db816136b7565b92915050565b5f602082840312156136f6576136f5613684565b5b5f613703848285016136cd565b91505092915050565b5f8115159050919050565b6137208161370c565b82525050565b5f6020820190506137395f830184613717565b92915050565b5f819050919050565b6137518161373f565b82525050565b5f60208201905061376a5f830184613748565b92915050565b5f80fd5b5f80fd5b5f80fd5b5f8083601f84011261379157613790613770565b5b8235905067ffffffffffffffff8111156137ae576137ad613774565b5b6020830191508360018202830111156137ca576137c9613778565b5b9250929050565b5f80602083850312156137e7576137e6613684565b5b5f83013567ffffffffffffffff81111561380457613803613688565b5b6138108582860161377c565b92509250509250929050565b5f73ffffffffffffffffffffffffffffffffffffffff82169050919050565b5f6138458261381c565b9050919050565b6138558161383b565b811461385f575f80fd5b50565b5f813590506138708161384c565b92915050565b61387f8161373f565b8114613889575f80fd5b50565b5f8135905061389a81613876565b92915050565b5f805f805f608086880312156138b9576138b8613684565b5b5f6138c688828901613862565b95505060206138d788828901613862565b94505060406138e88882890161388c565b935050606086013567ffffffffffffffff81111561390957613908613688565b5b6139158882890161377c565b92509250509295509295909350565b61392d8161368c565b82525050565b5f6020820190506139465f830184613924565b92915050565b5f805f806080858703121561396457613963613684565b5b5f6139718782880161388c565b945050602061398287828801613862565b93505060406139938782880161388c565b92505060606139a48782880161388c565b91505092959194509250565b5f819050919050565b6139c2816139b0565b81146139cc575f80fd5b50565b5f813590506139dd816139b9565b92915050565b5f602082840312156139f8576139f7613684565b5b5f613a05848285016139cf565b91505092915050565b613a178161383b565b82525050565b613a268161373f565b82525050565b613a358161370c565b82525050565b60c082015f820151613a4f5f850182613a0e565b506020820151613a626020850182613a0e565b506040820151613a756040850182613a1d565b506060820151613a886060850182613a1d565b506080820151613a9b6080850182613a2c565b5060a0820151613aae60a0850182613a1d565b50505050565b5f60c082019050613ac75f830184613a3b565b92915050565b613ad68161383b565b82525050565b5f602082019050613aef5f830184613acd565b92915050565b5f80fd5b5f601f19601f8301169050919050565b7f4e487b71000000000000000000000000000000000000000000000000000000005f52604160045260245ffd5b613b3f82613af9565b810181811067ffffffffffffffff82111715613b5e57613b5d613b09565b5b80604052505050565b5f613b7061367b565b9050613b7c8282613b36565b919050565b5f67ffffffffffffffff821115613b9b57613b9a613b09565b5b613ba482613af9565b9050602081019050919050565b828183375f83830152505050565b5f613bd1613bcc84613b81565b613b67565b905082815260208101848484011115613bed57613bec613af5565b5b613bf8848285613bb1565b509392505050565b5f82601f830112613c1457613c13613770565b5b8135613c24848260208601613bbf565b91505092915050565b5f8060408385031215613c4357613c42613684565b5b5f613c5085828601613862565b925050602083013567ffffffffffffffff811115613c7157613c70613688565b5b613c7d85828601613c00565b9150509250929050565b5f805f805f805f60c0888a031215613ca257613ca1613684565b5b5f613caf8a828b01613862565b9750506020613cc08a828b0161388c565b9650506040613cd18a828b0161388c565b9550506060613ce28a828b0161388c565b9450506080613cf38a828b0161388c565b93505060a088013567ffffffffffffffff811115613d1457613d13613688565b5b613d208a828b0161377c565b925092505092959891949750929550565b613d3a816139b0565b82525050565b5f602082019050613d535f830184613d31565b92915050565b5f60208284031215613d6e57613d6d613684565b5b5f613d7b8482850161388c565b91505092915050565b5f81519050919050565b5f82825260208201905092915050565b8281835e5f83830152505050565b5f613db682613d84565b613dc08185613d8e565b9350613dd0818560208601613d9e565b613dd981613af9565b840191505092915050565b5f6020820190508181035f830152613dfc8184613dac565b905092915050565b5f8060408385031215613e1a57613e19613684565b5b5f613e2785828601613862565b9250506020613e388582860161388c565b9150509250929050565b5f805f805f60a08688031215613e5b57613e5a613684565b5b5f613e6888828901613862565b9550506020613e798882890161388c565b9450506040613e8a8882890161388c565b9350506060613e9b8882890161388c565b9250506080613eac8882890161388c565b9150509295509295909350565b5f805f60608486031215613ed057613ecf613684565b5b5f613edd86828701613862565b9350506020613eee8682870161388c565b9250506040613eff8682870161388c565b9150509250925092565b5f60c082019050613f1c5f830189613acd565b613f296020830188613acd565b613f366040830187613748565b613f436060830186613748565b613f506080830185613717565b613f5d60a0830184613748565b979650505050505050565b5f60208284031215613f7d57613f7c613684565b5b5f613f8a84828501613862565b91505092915050565b5f81519050919050565b5f82825260208201905092915050565b5f819050602082019050919050565b613fc5816139b0565b82525050565b5f613fd68383613fbc565b60208301905092915050565b5f602082019050919050565b5f613ff882613f93565b6140028185613f9d565b935061400d83613fad565b805f5b8381101561403d5781516140248882613fcb565b975061402f83613fe2565b925050600181019050614010565b5085935050505092915050565b5f6020820190508181035f8301526140628184613fee565b905092915050565b5f60608201905061407d5f830186613748565b61408a6020830185613748565b6140976040830184613748565b949350505050565b5f81905092915050565b5f6140b4838561409f565b93506140c1838584613bb1565b82840190509392505050565b5f6140d98284866140a9565b91508190509392505050565b7f4665652070657263656e7461676520746f6f20686967680000000000000000005f82015250565b5f614119601783613d8e565b9150614124826140e5565b602082019050919050565b5f6020820190508181035f8301526141468161410d565b9050919050565b7f496e76616c69642066656520726563697069656e7400000000000000000000005f82015250565b5f614181601583613d8e565b915061418c8261414d565b602082019050919050565b5f6020820190508181035f8301526141ae81614175565b9050919050565b7f4d696e207072696365206d7573742062652067726561746572207468616e20305f82015250565b5f6141e9602083613d8e565b91506141f4826141b5565b602082019050919050565b5f6020820190508181035f830152614216816141dd565b9050919050565b7f4d6178207072696365206d7573742062652067726561746572207468616e206d5f8201527f696e207072696365000000000000000000000000000000000000000000000000602082015250565b5f614277602883613d8e565b91506142828261421d565b604082019050919050565b5f6020820190508181035f8301526142a48161426b565b9050919050565b5f6080820190506142be5f830187613748565b6142cb6020830186613acd565b6142d86040830185613748565b6142e56060830184613748565b95945050505050565b5f6040820190506143015f830185613748565b61430e6020830184613748565b9392505050565b7f4e487b71000000000000000000000000000000000000000000000000000000005f52601160045260245ffd5b5f61434c8261373f565b91506143578361373f565b92508282026143658161373f565b9150828204841483151761437c5761437b614315565b5b5092915050565b7f4e487b71000000000000000000000000000000000000000000000000000000005f52601260045260245ffd5b5f6143ba8261373f565b91506143c58361373f565b9250826143d5576143d4614383565b5b828204905092915050565b5f6143ea8261373f565b91506143f58361373f565b925082820390508181111561440d5761440c614315565b5b92915050565b5f61441d8261373f565b91505f820361442f5761442e614315565b5b600182039050919050565b5f60608201905061444d5f830186613acd565b61445a6020830185613acd565b6144676040830184613748565b949350505050565b50565b5f61447d5f8361409f565b91506144888261446f565b5f82019050919050565b5f61449c82614472565b9150819050919050565b7f466565207472616e73666572206661696c6564000000000000000000000000005f82015250565b5f6144da601383613d8e565b91506144e5826144a6565b602082019050919050565b5f6020820190508181035f830152614507816144ce565b9050919050565b7f53656c6c6572207061796d656e74206661696c656400000000000000000000005f82015250565b5f614542601583613d8e565b915061454d8261450e565b602082019050919050565b5f6020820190508181035f83015261456f81614536565b9050919050565b7f526566756e64206661696c6564000000000000000000000000000000000000005f82015250565b5f6145aa600d83613d8e565b91506145b582614576565b602082019050919050565b5f6020820190508181035f8301526145d78161459e565b9050919050565b5f60a0820190506145f15f830188613acd565b6145fe6020830187613748565b61460b6040830186613748565b6146186060830185613748565b6146256080830184613748565b9695505050505050565b7f5072696365206f7574206f662072616e676500000000000000000000000000005f82015250565b5f614663601283613d8e565b915061466e8261462f565b602082019050919050565b5f6020820190508181035f83015261469081614657565b9050919050565b7f5369676e617475726520657870697265640000000000000000000000000000005f82015250565b5f6146cb601183613d8e565b91506146d682614697565b602082019050919050565b5f6020820190508181035f8301526146f8816146bf565b9050919050565b5f8151905061470d8161384c565b92915050565b5f6020828403121561472857614727613684565b5b5f614735848285016146ff565b91505092915050565b7f5369676e6572206e6f74204e4654206f776e65720000000000000000000000005f82015250565b5f614772601483613d8e565b915061477d8261473e565b602082019050919050565b5f6020820190508181035f83015261479f81614766565b9050919050565b5f6040820190506147b95f830185613acd565b6147c66020830184613acd565b9392505050565b6147d68161370c565b81146147e0575f80fd5b50565b5f815190506147f1816147cd565b92915050565b5f6020828403121561480c5761480b613684565b5b5f614819848285016147e3565b91505092915050565b7f4d61726b6574206e6f7420617070726f766564000000000000000000000000005f82015250565b5f614856601383613d8e565b915061486182614822565b602082019050919050565b5f6020820190508181035f8301526148838161484a565b9050919050565b5f8160601b9050919050565b5f6148a08261488a565b9050919050565b5f6148b182614896565b9050919050565b6148c96148c48261383b565b6148a7565b82525050565b5f819050919050565b6148e96148e48261373f565b6148cf565b82525050565b5f6148fa82896148b8565b60148201915061490a82886148b8565b60148201915061491a82876148d8565b60208201915061492a82866148d8565b60208201915061493a82856148d8565b60208201915061494a82846148d8565b602082019150819050979650505050505050565b7f4c697374696e6720616c726561647920657869737473000000000000000000005f82015250565b5f614992601683613d8e565b915061499d8261495e565b602082019050919050565b5f6020820190508181035f8301526149bf81614986565b9050919050565b5f6149d08261373f565b91507fffffffffffffffffffffffffffffffffffffffffffffffffffffffffffffffff8203614a0257614a01614315565b5b600182019050919050565b5f82825260208201905092915050565b5f614a288385614a0d565b9350614a35838584613bb1565b614a3e83613af9565b840190509392505050565b5f608082019050614a5c5f830188613748565b614a696020830187613748565b614a766040830186613748565b8181036060830152614a89818486614a1d565b90509695505050505050565b7f496e73756666696369656e742062616c616e63650000000000000000000000005f82015250565b5f614ac9601483613d8e565b9150614ad482614a95565b602082019050919050565b5f6020820190508181035f830152614af681614abd565b9050919050565b7f5769746864726177616c206661696c65640000000000000000000000000000005f82015250565b5f614b31601183613d8e565b9150614b3c82614afd565b602082019050919050565b5f6020820190508181035f830152614b5e81614b25565b9050919050565b5f614b7082896148b8565b601482019150614b8082886148d8565b602082019150614b9082876148d8565b602082019150614ba082866148d8565b602082019150614bb082856148d8565b602082019150614bc082846148b8565b601482019150819050979650505050505050565b7f4e6f74204e4654206f776e6572000000000000000000000000000000000000005f82015250565b5f614c08600d83613d8e565b9150614c1382614bd4565b602082019050919050565b5f6020820190508181035f830152614c3581614bfc565b9050919050565b5f614c4782886148b8565b601482019150614c5782876148b8565b601482019150614c6782866148d8565b602082019150614c7782856148d8565b602082019150614c8782846148d8565b6020820191508190509695505050505050565b5f819050919050565b5f67ffffffffffffffff82169050919050565b5f819050919050565b5f614cd9614cd4614ccf84614c9a565b614cb6565b614ca3565b9050919050565b614ce981614cbf565b82525050565b5f602082019050614d025f830184614ce0565b92915050565b5f81519050614d16816139b9565b92915050565b5f60208284031215614d3157614d30613684565b5b5f614d3e84828501614d08565b91505092915050565b7f496e76616c6964207369676e61747572650000000000000000000000000000005f82015250565b5f614d7b601183613d8e565b9150614d8682614d47565b602082019050919050565b5f6020820190508181035f830152614da881614d6f565b9050919050565b5f81519050919050565b5f614dc382614daf565b614dcd818561409f565b9350614ddd818560208601613d9e565b80840191505092915050565b5f614df48284614db9565b915081905092915050565b7f4e487b71000000000000000000000000000000000000000000000000000000005f52602160045260245ffd5b5f60ff82169050919050565b614e4181614e2c565b82525050565b5f608082019050614e5a5f830187613d31565b614e676020830186614e38565b614e746040830185613d31565b614e816060830184613d31565b9594505050505056fea26469706673582212201762ad9640b4f85181d91f5174ad0f39094c3f6c9429f8fc751a69d3d4c36d8c64736f6c63430008190033","linkReferences":{}},"methodIdentifiers":{"UPGRADE_INTERFACE_VERSION()":"ad3cb1cc","activeListingsCount()":"045fb3e9","buyNFT(bytes32)":"17118469","delistNFT(bytes32)":"6da7cd74","emergencyWithdraw(uint256)":"5312ea8e","feePercentage()":"a001ecdd","feeRecipient()":"46904840","getListing(bytes32)":"175c0d16","getMarketStats()":"ff4cd5b9","getSignatureHash(address,uint256,uint256,uint256,uint256)":"a0219f8d","getUserListings(address)":"eb18a9d8","initialize(uint256,address,uint256,uint256)":"ae4a4525","isSignatureUsed(bytes)":"1150f0f3","listNFT(address,uint256,uint256)":"ad05f1b4","listWithSignature(address,uint256,uint256,uint256,uint256,bytes)":"50fe474a","listings(bytes32)":"c18b8db4","maxPrice()":"e38d6b5c","minPrice()":"e45be8eb","onERC721Received(address,address,uint256,bytes)":"150b7a02","owner()":"8da5cb5b","pause()":"8456cb59","paused()":"5c975abb","proxiableUUID()":"52d1902d","renounceOwnership()":"715018a6","supportsInterface(bytes4)":"01ffc9a7","transferOwnership(address)":"f2fde38b","unpause()":"3f4ba83a","updateMarketParams(uint256,address,uint256,uint256)":"15398196","upgradeToAndCall(address,bytes)":"4f1ef286","usedSignatures(bytes32)":"f978fd61","userListings(address,uint256)":"86cfa7d3","version()":"54fd4d50"},"id":49}